{
  "contractName": "ERC1155Tradable",
  "abi": [
    {
      "inputs": [
        {
          "internalType": "string",
          "name": "_name",
          "type": "string"
        },
        {
          "internalType": "string",
          "name": "_symbol",
          "type": "string"
        },
        {
          "internalType": "address",
          "name": "_proxyRegistryAddress",
          "type": "address"
        }
      ],
      "payable": false,
      "stateMutability": "nonpayable",
      "type": "constructor"
    },
    {
      "anonymous": false,
      "inputs": [
        {
          "indexed": true,
          "internalType": "address",
          "name": "_owner",
          "type": "address"
        },
        {
          "indexed": true,
          "internalType": "address",
          "name": "_operator",
          "type": "address"
        },
        {
          "indexed": false,
          "internalType": "bool",
          "name": "_approved",
          "type": "bool"
        }
      ],
      "name": "ApprovalForAll",
      "type": "event"
    },
    {
      "anonymous": false,
      "inputs": [
        {
          "indexed": true,
          "internalType": "address",
          "name": "account",
          "type": "address"
        }
      ],
      "name": "MinterAdded",
      "type": "event"
    },
    {
      "anonymous": false,
      "inputs": [
        {
          "indexed": true,
          "internalType": "address",
          "name": "account",
          "type": "address"
        }
      ],
      "name": "MinterRemoved",
      "type": "event"
    },
    {
      "anonymous": false,
      "inputs": [
        {
          "indexed": true,
          "internalType": "address",
          "name": "previousOwner",
          "type": "address"
        },
        {
          "indexed": true,
          "internalType": "address",
          "name": "newOwner",
          "type": "address"
        }
      ],
      "name": "OwnershipTransferred",
      "type": "event"
    },
    {
      "anonymous": false,
      "inputs": [
        {
          "indexed": true,
          "internalType": "address",
          "name": "_operator",
          "type": "address"
        },
        {
          "indexed": true,
          "internalType": "address",
          "name": "_from",
          "type": "address"
        },
        {
          "indexed": true,
          "internalType": "address",
          "name": "_to",
          "type": "address"
        },
        {
          "indexed": false,
          "internalType": "uint256[]",
          "name": "_ids",
          "type": "uint256[]"
        },
        {
          "indexed": false,
          "internalType": "uint256[]",
          "name": "_amounts",
          "type": "uint256[]"
        }
      ],
      "name": "TransferBatch",
      "type": "event"
    },
    {
      "anonymous": false,
      "inputs": [
        {
          "indexed": true,
          "internalType": "address",
          "name": "_operator",
          "type": "address"
        },
        {
          "indexed": true,
          "internalType": "address",
          "name": "_from",
          "type": "address"
        },
        {
          "indexed": true,
          "internalType": "address",
          "name": "_to",
          "type": "address"
        },
        {
          "indexed": false,
          "internalType": "uint256",
          "name": "_id",
          "type": "uint256"
        },
        {
          "indexed": false,
          "internalType": "uint256",
          "name": "_amount",
          "type": "uint256"
        }
      ],
      "name": "TransferSingle",
      "type": "event"
    },
    {
      "anonymous": false,
      "inputs": [
        {
          "indexed": false,
          "internalType": "string",
          "name": "_uri",
          "type": "string"
        },
        {
          "indexed": true,
          "internalType": "uint256",
          "name": "_id",
          "type": "uint256"
        }
      ],
      "name": "URI",
      "type": "event"
    },
    {
      "anonymous": false,
      "inputs": [
        {
          "indexed": true,
          "internalType": "address",
          "name": "account",
          "type": "address"
        }
      ],
      "name": "WhitelistAdminAdded",
      "type": "event"
    },
    {
      "anonymous": false,
      "inputs": [
        {
          "indexed": true,
          "internalType": "address",
          "name": "account",
          "type": "address"
        }
      ],
      "name": "WhitelistAdminRemoved",
      "type": "event"
    },
    {
      "constant": false,
      "inputs": [
        {
          "internalType": "address",
          "name": "account",
          "type": "address"
        }
      ],
      "name": "addMinter",
      "outputs": [],
      "payable": false,
      "stateMutability": "nonpayable",
      "type": "function"
    },
    {
      "constant": false,
      "inputs": [
        {
          "internalType": "address",
          "name": "account",
          "type": "address"
        }
      ],
      "name": "addWhitelistAdmin",
      "outputs": [],
      "payable": false,
      "stateMutability": "nonpayable",
      "type": "function"
    },
    {
      "constant": true,
      "inputs": [
        {
          "internalType": "address",
          "name": "_owner",
          "type": "address"
        },
        {
          "internalType": "uint256",
          "name": "_id",
          "type": "uint256"
        }
      ],
      "name": "balanceOf",
      "outputs": [
        {
          "internalType": "uint256",
          "name": "",
          "type": "uint256"
        }
      ],
      "payable": false,
      "stateMutability": "view",
      "type": "function"
    },
    {
      "constant": true,
      "inputs": [
        {
          "internalType": "address[]",
          "name": "_owners",
          "type": "address[]"
        },
        {
          "internalType": "uint256[]",
          "name": "_ids",
          "type": "uint256[]"
        }
      ],
      "name": "balanceOfBatch",
      "outputs": [
        {
          "internalType": "uint256[]",
          "name": "",
          "type": "uint256[]"
        }
      ],
      "payable": false,
      "stateMutability": "view",
      "type": "function"
    },
    {
      "constant": true,
      "inputs": [
        {
          "internalType": "uint256",
          "name": "",
          "type": "uint256"
        }
      ],
      "name": "creators",
      "outputs": [
        {
          "internalType": "address",
          "name": "",
          "type": "address"
        }
      ],
      "payable": false,
      "stateMutability": "view",
      "type": "function"
    },
    {
      "constant": true,
      "inputs": [
        {
          "internalType": "address",
          "name": "account",
          "type": "address"
        }
      ],
      "name": "isMinter",
      "outputs": [
        {
          "internalType": "bool",
          "name": "",
          "type": "bool"
        }
      ],
      "payable": false,
      "stateMutability": "view",
      "type": "function"
    },
    {
      "constant": true,
      "inputs": [],
      "name": "isOwner",
      "outputs": [
        {
          "internalType": "bool",
          "name": "",
          "type": "bool"
        }
      ],
      "payable": false,
      "stateMutability": "view",
      "type": "function"
    },
    {
      "constant": true,
      "inputs": [
        {
          "internalType": "address",
          "name": "account",
          "type": "address"
        }
      ],
      "name": "isWhitelistAdmin",
      "outputs": [
        {
          "internalType": "bool",
          "name": "",
          "type": "bool"
        }
      ],
      "payable": false,
      "stateMutability": "view",
      "type": "function"
    },
    {
      "constant": true,
      "inputs": [],
      "name": "name",
      "outputs": [
        {
          "internalType": "string",
          "name": "",
          "type": "string"
        }
      ],
      "payable": false,
      "stateMutability": "view",
      "type": "function"
    },
    {
      "constant": true,
      "inputs": [],
      "name": "owner",
      "outputs": [
        {
          "internalType": "address",
          "name": "",
          "type": "address"
        }
      ],
      "payable": false,
      "stateMutability": "view",
      "type": "function"
    },
    {
      "constant": false,
      "inputs": [],
      "name": "renounceMinter",
      "outputs": [],
      "payable": false,
      "stateMutability": "nonpayable",
      "type": "function"
    },
    {
      "constant": false,
      "inputs": [],
      "name": "renounceOwnership",
      "outputs": [],
      "payable": false,
      "stateMutability": "nonpayable",
      "type": "function"
    },
    {
      "constant": false,
      "inputs": [],
      "name": "renounceWhitelistAdmin",
      "outputs": [],
      "payable": false,
      "stateMutability": "nonpayable",
      "type": "function"
    },
    {
      "constant": false,
      "inputs": [
        {
          "internalType": "address",
          "name": "_from",
          "type": "address"
        },
        {
          "internalType": "address",
          "name": "_to",
          "type": "address"
        },
        {
          "internalType": "uint256[]",
          "name": "_ids",
          "type": "uint256[]"
        },
        {
          "internalType": "uint256[]",
          "name": "_amounts",
          "type": "uint256[]"
        },
        {
          "internalType": "bytes",
          "name": "_data",
          "type": "bytes"
        }
      ],
      "name": "safeBatchTransferFrom",
      "outputs": [],
      "payable": false,
      "stateMutability": "nonpayable",
      "type": "function"
    },
    {
      "constant": false,
      "inputs": [
        {
          "internalType": "address",
          "name": "_from",
          "type": "address"
        },
        {
          "internalType": "address",
          "name": "_to",
          "type": "address"
        },
        {
          "internalType": "uint256",
          "name": "_id",
          "type": "uint256"
        },
        {
          "internalType": "uint256",
          "name": "_amount",
          "type": "uint256"
        },
        {
          "internalType": "bytes",
          "name": "_data",
          "type": "bytes"
        }
      ],
      "name": "safeTransferFrom",
      "outputs": [],
      "payable": false,
      "stateMutability": "nonpayable",
      "type": "function"
    },
    {
      "constant": false,
      "inputs": [
        {
          "internalType": "address",
          "name": "_operator",
          "type": "address"
        },
        {
          "internalType": "bool",
          "name": "_approved",
          "type": "bool"
        }
      ],
      "name": "setApprovalForAll",
      "outputs": [],
      "payable": false,
      "stateMutability": "nonpayable",
      "type": "function"
    },
    {
      "constant": true,
      "inputs": [
        {
          "internalType": "bytes4",
          "name": "_interfaceID",
          "type": "bytes4"
        }
      ],
      "name": "supportsInterface",
      "outputs": [
        {
          "internalType": "bool",
          "name": "",
          "type": "bool"
        }
      ],
      "payable": false,
      "stateMutability": "view",
      "type": "function"
    },
    {
      "constant": true,
      "inputs": [],
      "name": "symbol",
      "outputs": [
        {
          "internalType": "string",
          "name": "",
          "type": "string"
        }
      ],
      "payable": false,
      "stateMutability": "view",
      "type": "function"
    },
    {
      "constant": true,
      "inputs": [
        {
          "internalType": "uint256",
          "name": "",
          "type": "uint256"
        }
      ],
      "name": "tokenMaxSupply",
      "outputs": [
        {
          "internalType": "uint256",
          "name": "",
          "type": "uint256"
        }
      ],
      "payable": false,
      "stateMutability": "view",
      "type": "function"
    },
    {
      "constant": true,
      "inputs": [
        {
          "internalType": "uint256",
          "name": "",
          "type": "uint256"
        }
      ],
      "name": "tokenSupply",
      "outputs": [
        {
          "internalType": "uint256",
          "name": "",
          "type": "uint256"
        }
      ],
      "payable": false,
      "stateMutability": "view",
      "type": "function"
    },
    {
      "constant": false,
      "inputs": [
        {
          "internalType": "address",
          "name": "newOwner",
          "type": "address"
        }
      ],
      "name": "transferOwnership",
      "outputs": [],
      "payable": false,
      "stateMutability": "nonpayable",
      "type": "function"
    },
    {
      "constant": false,
      "inputs": [
        {
          "internalType": "string",
          "name": "_name",
          "type": "string"
        },
        {
          "internalType": "string",
          "name": "_symbol",
          "type": "string"
        },
        {
          "internalType": "address",
          "name": "_proxyRegistryAddress",
          "type": "address"
        }
      ],
      "name": "init",
      "outputs": [],
      "payable": false,
      "stateMutability": "nonpayable",
      "type": "function"
    },
    {
      "constant": false,
      "inputs": [
        {
          "internalType": "address",
          "name": "account",
          "type": "address"
        }
      ],
      "name": "removeWhitelistAdmin",
      "outputs": [],
      "payable": false,
      "stateMutability": "nonpayable",
      "type": "function"
    },
    {
      "constant": false,
      "inputs": [
        {
          "internalType": "address",
          "name": "account",
          "type": "address"
        }
      ],
      "name": "removeMinter",
      "outputs": [],
      "payable": false,
      "stateMutability": "nonpayable",
      "type": "function"
    },
    {
      "constant": true,
      "inputs": [
        {
          "internalType": "uint256",
          "name": "_id",
          "type": "uint256"
        }
      ],
      "name": "uri",
      "outputs": [
        {
          "internalType": "string",
          "name": "",
          "type": "string"
        }
      ],
      "payable": false,
      "stateMutability": "view",
      "type": "function"
    },
    {
      "constant": true,
      "inputs": [
        {
          "internalType": "uint256",
          "name": "_id",
          "type": "uint256"
        }
      ],
      "name": "totalSupply",
      "outputs": [
        {
          "internalType": "uint256",
          "name": "",
          "type": "uint256"
        }
      ],
      "payable": false,
      "stateMutability": "view",
      "type": "function"
    },
    {
      "constant": true,
      "inputs": [
        {
          "internalType": "uint256",
          "name": "_id",
          "type": "uint256"
        }
      ],
      "name": "maxSupply",
      "outputs": [
        {
          "internalType": "uint256",
          "name": "",
          "type": "uint256"
        }
      ],
      "payable": false,
      "stateMutability": "view",
      "type": "function"
    },
    {
      "constant": false,
      "inputs": [
        {
          "internalType": "string",
          "name": "_newBaseMetadataURI",
          "type": "string"
        }
      ],
      "name": "setBaseMetadataURI",
      "outputs": [],
      "payable": false,
      "stateMutability": "nonpayable",
      "type": "function"
    },
    {
      "constant": false,
      "inputs": [
        {
          "internalType": "uint256",
          "name": "_maxSupply",
          "type": "uint256"
        },
        {
          "internalType": "uint256",
          "name": "_initialSupply",
          "type": "uint256"
        },
        {
          "internalType": "string",
          "name": "_uri",
          "type": "string"
        },
        {
          "internalType": "bytes",
          "name": "_data",
          "type": "bytes"
        }
      ],
      "name": "create",
      "outputs": [
        {
          "internalType": "uint256",
          "name": "tokenId",
          "type": "uint256"
        }
      ],
      "payable": false,
      "stateMutability": "nonpayable",
      "type": "function"
    },
    {
      "constant": false,
      "inputs": [
        {
          "internalType": "uint256",
          "name": "_id",
          "type": "uint256"
        },
        {
          "internalType": "string",
          "name": "_uri",
          "type": "string"
        }
      ],
      "name": "updateUri",
      "outputs": [],
      "payable": false,
      "stateMutability": "nonpayable",
      "type": "function"
    },
    {
      "constant": false,
      "inputs": [
        {
          "internalType": "address",
          "name": "_address",
          "type": "address"
        },
        {
          "internalType": "uint256",
          "name": "_id",
          "type": "uint256"
        },
        {
          "internalType": "uint256",
          "name": "_amount",
          "type": "uint256"
        }
      ],
      "name": "burn",
      "outputs": [],
      "payable": false,
      "stateMutability": "nonpayable",
      "type": "function"
    },
    {
      "constant": false,
      "inputs": [
        {
          "internalType": "address",
          "name": "_proxyRegistryAddress",
          "type": "address"
        }
      ],
      "name": "updateProxyRegistryAddress",
      "outputs": [],
      "payable": false,
      "stateMutability": "nonpayable",
      "type": "function"
    },
    {
      "constant": false,
      "inputs": [
        {
          "internalType": "uint256",
          "name": "_id",
          "type": "uint256"
        },
        {
          "internalType": "uint256",
          "name": "_quantity",
          "type": "uint256"
        },
        {
          "internalType": "bytes",
          "name": "_data",
          "type": "bytes"
        }
      ],
      "name": "mint",
      "outputs": [],
      "payable": false,
      "stateMutability": "nonpayable",
      "type": "function"
    },
    {
      "constant": true,
      "inputs": [
        {
          "internalType": "address",
          "name": "_owner",
          "type": "address"
        },
        {
          "internalType": "address",
          "name": "_operator",
          "type": "address"
        }
      ],
      "name": "isApprovedForAll",
      "outputs": [
        {
          "internalType": "bool",
          "name": "isOperator",
          "type": "bool"
        }
      ],
      "payable": false,
      "stateMutability": "view",
      "type": "function"
    }
  ],
  "bytecode": "0x608060405260006007556000600e60006101000a81548160ff0219169083151502179055503480156200003157600080fd5b506040516200549f3803806200549f833981810160405260608110156200005757600080fd5b81019080805160405193929190846401000000008211156200007857600080fd5b838201915060208201858111156200008f57600080fd5b8251866001820283011164010000000082111715620000ad57600080fd5b8083526020830192505050908051906020019080838360005b83811015620000e3578082015181840152602081019050620000c6565b50505050905090810190601f168015620001115780820380516001836020036101000a031916815260200191505b50604052602001805160405193929190846401000000008211156200013557600080fd5b838201915060208201858111156200014c57600080fd5b82518660018202830111640100000000821117156200016a57600080fd5b8083526020830192505050908051906020019080838360005b83811015620001a057808201518184015260208101905062000183565b50505050905090810190601f168015620001ce5780820380516001836020036101000a031916815260200191505b50604052602001805190602001909291905050506000620001f46200036a60201b60201c565b905080600360006101000a81548173ffffffffffffffffffffffffffffffffffffffff021916908373ffffffffffffffffffffffffffffffffffffffff1602179055508073ffffffffffffffffffffffffffffffffffffffff16600073ffffffffffffffffffffffffffffffffffffffff167f8be0079c531659141344cd1fd0a4f28419497f9722a3daafe3b4186f6b6457e060405160405180910390a350620002b3620002a76200036a60201b60201c565b6200037260201b60201c565b620002d3620002c76200036a60201b60201c565b620003d360201b60201c565b6001600e60006101000a81548160ff02191690831515021790555082600b908051906020019062000306929190620005f8565b5081600c90805190602001906200031f929190620005f8565b5080600660006101000a81548173ffffffffffffffffffffffffffffffffffffffff021916908373ffffffffffffffffffffffffffffffffffffffff160217905550505050620006a7565b600033905090565b6200038d8160046200043460201b620048851790919060201c565b8073ffffffffffffffffffffffffffffffffffffffff167f6ae172837ea30b801fbfcdd4108aa1d5bf8ff775444fd70256b44e6bf3dfc3f660405160405180910390a250565b620003ee8160056200043460201b620048851790919060201c565b8073ffffffffffffffffffffffffffffffffffffffff167f22380c05984257a1cb900161c713dd71d39e74820f1aea43bd3f1bdd2096129960405160405180910390a250565b6200044682826200051860201b60201c565b15620004ba576040517f08c379a000000000000000000000000000000000000000000000000000000000815260040180806020018281038252601f8152602001807f526f6c65733a206163636f756e7420616c72656164792068617320726f6c650081525060200191505060405180910390fd5b60018260000160008373ffffffffffffffffffffffffffffffffffffffff1673ffffffffffffffffffffffffffffffffffffffff16815260200190815260200160002060006101000a81548160ff0219169083151502179055505050565b60008073ffffffffffffffffffffffffffffffffffffffff168273ffffffffffffffffffffffffffffffffffffffff161415620005a1576040517f08c379a00000000000000000000000000000000000000000000000000000000081526004018080602001828103825260228152602001806200547d6022913960400191505060405180910390fd5b8260000160008373ffffffffffffffffffffffffffffffffffffffff1673ffffffffffffffffffffffffffffffffffffffff16815260200190815260200160002060009054906101000a900460ff16905092915050565b828054600181600116156101000203166002900490600052602060002090601f016020900481019282601f106200063b57805160ff19168380011785556200066c565b828001600101855582156200066c579182015b828111156200066b5782518255916020019190600101906200064e565b5b5090506200067b91906200067f565b5090565b620006a491905b80821115620006a057600081600090555060010162000686565b5090565b90565b614dc680620006b76000396000f3fe608060405234801561001057600080fd5b50600436106102045760003560e01c80637e518ec81161011a578063aa271e1a116100ad578063cd53d08e1161007c578063cd53d08e146110a4578063e985e9c514611112578063f242432a1461118e578063f2fde38b1461129d578063f5298aca146112e157610204565b8063aa271e1a14610eb4578063b09ddf7b14610f10578063bb5f747b14611006578063bd85b0391461106257610204565b806395d89b41116100e957806395d89b4114610d93578063983b2d5614610e165780639865027514610e5a578063a22cb46514610e6457610204565b80637e518ec814610c2a578063869f759414610ce55780638da5cb5b14610d275780638f32d59b14610d7157610204565b80632693ebf21161019d5780634e1273f41161016c5780634e1273f4146108855780636897e97414610a265780636ee5741a14610a6a578063715018a614610bdc5780637362d9c814610be657610204565b80632693ebf2146105d25780632eb2c2d6146106145780633092afd5146108375780634c5a628c1461087b57610204565b806306fdde03116101d957806306fdde031461039557806308dc9f42146104185780630e89341c146104e757806316f6c2da1461058e57610204565b80624221f014610209578062fdd58e1461024b57806301ffc9a7146102ad5780630575120414610312575b600080fd5b6102356004803603602081101561021f57600080fd5b8101908080359060200190929190505050611339565b6040518082815260200191505060405180910390f35b6102976004803603604081101561026157600080fd5b81019080803573ffffffffffffffffffffffffffffffffffffffff16906020019092919080359060200190929190505050611351565b6040518082815260200191505060405180910390f35b6102f8600480360360208110156102c357600080fd5b8101908080357bffffffffffffffffffffffffffffffffffffffffffffffffffffffff191690602001909291905050506113ab565b604051808215151515815260200191505060405180910390f35b6103936004803603604081101561032857600080fd5b81019080803590602001909291908035906020019064010000000081111561034f57600080fd5b82018360208201111561036157600080fd5b8035906020019184600183028401116401000000008311171561038357600080fd5b909192939192939050505061145c565b005b61039d6116f2565b6040518080602001828103825283818151815260200191508051906020019080838360005b838110156103dd5780820151818401526020810190506103c2565b50505050905090810190601f16801561040a5780820380516001836020036101000a031916815260200191505b509250505060405180910390f35b6104e56004803603606081101561042e57600080fd5b8101908080359060200190929190803590602001909291908035906020019064010000000081111561045f57600080fd5b82018360208201111561047157600080fd5b8035906020019184600183028401116401000000008311171561049357600080fd5b91908080601f016020809104026020016040519081016040528093929190818152602001838380828437600081840152601f19601f820116905080830192505050505050509192919290505050611790565b005b610513600480360360208110156104fd57600080fd5b81019080803590602001909291905050506118f7565b6040518080602001828103825283818151815260200191508051906020019080838360005b83811015610553578082015181840152602081019050610538565b50505050905090810190601f1680156105805780820380516001836020036101000a031916815260200191505b509250505060405180910390f35b6105d0600480360360208110156105a457600080fd5b81019080803573ffffffffffffffffffffffffffffffffffffffff169060200190929190505050611aee565b005b6105fe600480360360208110156105e857600080fd5b8101908080359060200190929190505050611c3a565b6040518082815260200191505060405180910390f35b610835600480360360a081101561062a57600080fd5b81019080803573ffffffffffffffffffffffffffffffffffffffff169060200190929190803573ffffffffffffffffffffffffffffffffffffffff1690602001909291908035906020019064010000000081111561068757600080fd5b82018360208201111561069957600080fd5b803590602001918460208302840111640100000000831117156106bb57600080fd5b919080806020026020016040519081016040528093929190818152602001838360200280828437600081840152601f19601f8201169050808301925050505050505091929192908035906020019064010000000081111561071b57600080fd5b82018360208201111561072d57600080fd5b8035906020019184602083028401116401000000008311171561074f57600080fd5b919080806020026020016040519081016040528093929190818152602001838360200280828437600081840152601f19601f820116905080830192505050505050509192919290803590602001906401000000008111156107af57600080fd5b8201836020820111156107c157600080fd5b803590602001918460018302840111640100000000831117156107e357600080fd5b91908080601f016020809104026020016040519081016040528093929190818152602001838380828437600081840152601f19601f820116905080830192505050505050509192919290505050611c52565b005b6108796004803603602081101561084d57600080fd5b81019080803573ffffffffffffffffffffffffffffffffffffffff169060200190929190505050611d8d565b005b610883611e13565b005b6109cf6004803603604081101561089b57600080fd5b81019080803590602001906401000000008111156108b857600080fd5b8201836020820111156108ca57600080fd5b803590602001918460208302840111640100000000831117156108ec57600080fd5b919080806020026020016040519081016040528093929190818152602001838360200280828437600081840152601f19601f8201169050808301925050505050505091929192908035906020019064010000000081111561094c57600080fd5b82018360208201111561095e57600080fd5b8035906020019184602083028401116401000000008311171561098057600080fd5b919080806020026020016040519081016040528093929190818152602001838360200280828437600081840152601f19601f820116905080830192505050505050509192919290505050611e25565b6040518080602001828103825283818151815260200191508051906020019060200280838360005b83811015610a125780820151818401526020810190506109f7565b505050509050019250505060405180910390f35b610a6860048036036020811015610a3c57600080fd5b81019080803573ffffffffffffffffffffffffffffffffffffffff169060200190929190505050611f6b565b005b610bda60048036036060811015610a8057600080fd5b8101908080359060200190640100000000811115610a9d57600080fd5b820183602082011115610aaf57600080fd5b80359060200191846001830284011164010000000083111715610ad157600080fd5b91908080601f016020809104026020016040519081016040528093929190818152602001838380828437600081840152601f19601f82011690508083019250505050505050919291929080359060200190640100000000811115610b3457600080fd5b820183602082011115610b4657600080fd5b80359060200191846001830284011164010000000083111715610b6857600080fd5b91908080601f016020809104026020016040519081016040528093929190818152602001838380828437600081840152601f19601f820116905080830192505050505050509192919290803573ffffffffffffffffffffffffffffffffffffffff169060200190929190505050611ff1565b005b610be46120fe565b005b610c2860048036036020811015610bfc57600080fd5b81019080803573ffffffffffffffffffffffffffffffffffffffff169060200190929190505050612239565b005b610ce360048036036020811015610c4057600080fd5b8101908080359060200190640100000000811115610c5d57600080fd5b820183602082011115610c6f57600080fd5b80359060200191846001830284011164010000000083111715610c9157600080fd5b91908080601f016020809104026020016040519081016040528093929190818152602001838380828437600081840152601f19601f8201169050808301925050505050505091929192905050506122aa565b005b610d1160048036036020811015610cfb57600080fd5b810190808035906020019092919050505061231b565b6040518082815260200191505060405180910390f35b610d2f612338565b604051808273ffffffffffffffffffffffffffffffffffffffff1673ffffffffffffffffffffffffffffffffffffffff16815260200191505060405180910390f35b610d79612362565b604051808215151515815260200191505060405180910390f35b610d9b6123c1565b6040518080602001828103825283818151815260200191508051906020019080838360005b83811015610ddb578082015181840152602081019050610dc0565b50505050905090810190601f168015610e085780820380516001836020036101000a031916815260200191505b509250505060405180910390f35b610e5860048036036020811015610e2c57600080fd5b81019080803573ffffffffffffffffffffffffffffffffffffffff16906020019092919050505061245f565b005b610e626124d0565b005b610eb260048036036040811015610e7a57600080fd5b81019080803573ffffffffffffffffffffffffffffffffffffffff1690602001909291908035151590602001909291905050506124e2565b005b610ef660048036036020811015610eca57600080fd5b81019080803573ffffffffffffffffffffffffffffffffffffffff1690602001909291905050506125e3565b604051808215151515815260200191505060405180910390f35b610ff060048036036080811015610f2657600080fd5b81019080803590602001909291908035906020019092919080359060200190640100000000811115610f5757600080fd5b820183602082011115610f6957600080fd5b80359060200191846001830284011164010000000083111715610f8b57600080fd5b909192939192939080359060200190640100000000811115610fac57600080fd5b820183602082011115610fbe57600080fd5b80359060200191846001830284011164010000000083111715610fe057600080fd5b9091929391929390505050612600565b6040518082815260200191505060405180910390f35b6110486004803603602081101561101c57600080fd5b81019080803573ffffffffffffffffffffffffffffffffffffffff1690602001909291905050506129e9565b604051808215151515815260200191505060405180910390f35b61108e6004803603602081101561107857600080fd5b8101908080359060200190929190505050612a06565b6040518082815260200191505060405180910390f35b6110d0600480360360208110156110ba57600080fd5b8101908080359060200190929190505050612a23565b604051808273ffffffffffffffffffffffffffffffffffffffff1673ffffffffffffffffffffffffffffffffffffffff16815260200191505060405180910390f35b6111746004803603604081101561112857600080fd5b81019080803573ffffffffffffffffffffffffffffffffffffffff169060200190929190803573ffffffffffffffffffffffffffffffffffffffff169060200190929190505050612a56565b604051808215151515815260200191505060405180910390f35b61129b600480360360a08110156111a457600080fd5b81019080803573ffffffffffffffffffffffffffffffffffffffff169060200190929190803573ffffffffffffffffffffffffffffffffffffffff16906020019092919080359060200190929190803590602001909291908035906020019064010000000081111561121557600080fd5b82018360208201111561122757600080fd5b8035906020019184600183028401116401000000008311171561124957600080fd5b91908080601f016020809104026020016040519081016040528093929190818152602001838380828437600081840152601f19601f820116905080830192505050505050509192919290505050612b87565b005b6112df600480360360208110156112b357600080fd5b81019080803573ffffffffffffffffffffffffffffffffffffffff169060200190929190505050612cc2565b005b611337600480360360608110156112f757600080fd5b81019080803573ffffffffffffffffffffffffffffffffffffffff1690602001909291908035906020019092919080359060200190929190505050612d48565b005b600a6020528060005260406000206000915090505481565b60008060008473ffffffffffffffffffffffffffffffffffffffff1673ffffffffffffffffffffffffffffffffffffffff168152602001908152602001600020600083815260200190815260200160002054905092915050565b60006301ffc9a760e01b7bffffffffffffffffffffffffffffffffffffffffffffffffffffffff1916827bffffffffffffffffffffffffffffffffffffffffffffffffffffffff19161480611444575063d9b67a2660e01b7bffffffffffffffffffffffffffffffffffffffffffffffffffffffff1916827bffffffffffffffffffffffffffffffffffffffffffffffffffffffff1916145b156114525760019050611457565b600090505b919050565b61146c611467612eb2565b6129e9565b6114c1576040517f08c379a0000000000000000000000000000000000000000000000000000000008152600401808060200182810382526040815260200180614c7e6040913960400191505060405180910390fd5b6000828290501115611559578181600d600086815260200190815260200160002091906114ef929190614960565b50827f6bb7ff708619ba0610cba295a58592e0451dee2622938c8755667688daf3529b838360405180806020018281038252848482818152602001925080828437600081840152601f19601f820116905080830192505050935050505060405180910390a26116ed565b827f6bb7ff708619ba0610cba295a58592e0451dee2622938c8755667688daf3529b600261158686612eba565b60405160200180838054600181600116156101000203166002900480156115e45780601f106115c25761010080835404028352918201916115e4565b820191906000526020600020905b8154815290600101906020018083116115d0575b505082805190602001908083835b6020831061161557805182526020820191506020810190506020830392506115f2565b6001836020036101000a038019825116818451168082178552505050505050905001807f2e6a736f6e000000000000000000000000000000000000000000000000000000815250600501925050506040516020818303038152906040526040518080602001828103825283818151815260200191508051906020019080838360005b838110156116b2578082015181840152602081019050611697565b50505050905090810190601f1680156116df5780820380516001836020036101000a031916815260200191505b509250505060405180910390a25b505050565b600b8054600181600116156101000203166002900480601f0160208091040260200160405190810160405280929190818152602001828054600181600116156101000203166002900480156117885780601f1061175d57610100808354040283529160200191611788565b820191906000526020600020905b81548152906001019060200180831161176b57829003601f168201915b505050505081565b6117a061179b612eb2565b6125e3565b6117f5576040517f08c379a0000000000000000000000000000000000000000000000000000000008152600401808060200182810382526030815260200180614b366030913960400191505060405180910390fd5b6000839050600a600082815260200190815260200160002054611834846009600085815260200190815260200160002054612fed90919063ffffffff16565b11156118a8576040517f08c379a00000000000000000000000000000000000000000000000000000000081526004018080602001828103825260128152602001807f4d617820737570706c792072656163686564000000000000000000000000000081525060200191505060405180910390fd5b6118b433858585613075565b6118da836009600087815260200190815260200160002054612fed90919063ffffffff16565b600960008681526020019081526020016000208190555050505050565b6060611902826131c3565b611957576040517f08c379a0000000000000000000000000000000000000000000000000000000008152600401808060200182810382526025815260200180614c0a6025913960400191505060405180910390fd5b6000600d60008481526020019081526020016000208054600181600116156101000203166002900490501115611a3a57600d60008381526020019081526020016000208054600181600116156101000203166002900480601f016020809104026020016040519081016040528092919081815260200182805460018160011615610100020316600290048015611a2e5780601f10611a0357610100808354040283529160200191611a2e565b820191906000526020600020905b815481529060010190602001808311611a1157829003601f168201915b50505050509050611ae9565b611ae660028054600181600116156101000203166002900480601f016020809104026020016040519081016040528092919081815260200182805460018160011615610100020316600290048015611ad35780601f10611aa857610100808354040283529160200191611ad3565b820191906000526020600020905b815481529060010190602001808311611ab657829003601f168201915b5050505050611ae18461322f565b61335c565b90505b919050565b611afe611af9612eb2565b6129e9565b611b53576040517f08c379a0000000000000000000000000000000000000000000000000000000008152600401808060200182810382526040815260200180614c7e6040913960400191505060405180910390fd5b600073ffffffffffffffffffffffffffffffffffffffff168173ffffffffffffffffffffffffffffffffffffffff161415611bf6576040517f08c379a000000000000000000000000000000000000000000000000000000000815260040180806020018281038252600f8152602001807f4e6f207a65726f2061646472657373000000000000000000000000000000000081525060200191505060405180910390fd5b80600660006101000a81548173ffffffffffffffffffffffffffffffffffffffff021916908373ffffffffffffffffffffffffffffffffffffffff16021790555050565b60096020528060005260406000206000915090505481565b8473ffffffffffffffffffffffffffffffffffffffff163373ffffffffffffffffffffffffffffffffffffffff161480611c925750611c918533612a56565b5b611ce7576040517f08c379a000000000000000000000000000000000000000000000000000000000815260040180806020018281038252602f815260200180614cea602f913960400191505060405180910390fd5b600073ffffffffffffffffffffffffffffffffffffffff168473ffffffffffffffffffffffffffffffffffffffff161415611d6d576040517f08c379a0000000000000000000000000000000000000000000000000000000008152600401808060200182810382526030815260200180614bda6030913960400191505060405180910390fd5b611d79858585856133a0565b611d868585858585613705565b5050505050565b611d95612362565b611e07576040517f08c379a00000000000000000000000000000000000000000000000000000000081526004018080602001828103825260208152602001807f4f776e61626c653a2063616c6c6572206973206e6f7420746865206f776e657281525060200191505060405180910390fd5b611e10816139c0565b50565b611e23611e1e612eb2565b613a1a565b565b60608151835114611e81576040517f08c379a000000000000000000000000000000000000000000000000000000000815260040180806020018281038252602c815260200180614cbe602c913960400191505060405180910390fd5b60608351604051908082528060200260200182016040528015611eb35781602001602082028038833980820191505090505b50905060008090505b8451811015611f6057600080868381518110611ed457fe5b602002602001015173ffffffffffffffffffffffffffffffffffffffff1673ffffffffffffffffffffffffffffffffffffffff1681526020019081526020016000206000858381518110611f2457fe5b6020026020010151815260200190815260200160002054828281518110611f4757fe5b6020026020010181815250508080600101915050611ebc565b508091505092915050565b611f73612362565b611fe5576040517f08c379a00000000000000000000000000000000000000000000000000000000081526004018080602001828103825260208152602001807f4f776e61626c653a2063616c6c6572206973206e6f7420746865206f776e657281525060200191505060405180910390fd5b611fee81613a1a565b50565b600e60009054906101000a900460ff1615612057576040517f08c379a000000000000000000000000000000000000000000000000000000000815260040180806020018281038252602c815260200180614bae602c913960400191505060405180910390fd5b6001600e60006101000a81548160ff02191690831515021790555082600b90805190602001906120889291906149e0565b5081600c908051906020019061209f9291906149e0565b5080600660006101000a81548173ffffffffffffffffffffffffffffffffffffffff021916908373ffffffffffffffffffffffffffffffffffffffff1602179055506120e9613a74565b6120f1613b1f565b6120f9613b31565b505050565b612106612362565b612178576040517f08c379a00000000000000000000000000000000000000000000000000000000081526004018080602001828103825260208152602001807f4f776e61626c653a2063616c6c6572206973206e6f7420746865206f776e657281525060200191505060405180910390fd5b600073ffffffffffffffffffffffffffffffffffffffff16600360009054906101000a900473ffffffffffffffffffffffffffffffffffffffff1673ffffffffffffffffffffffffffffffffffffffff167f8be0079c531659141344cd1fd0a4f28419497f9722a3daafe3b4186f6b6457e060405160405180910390a36000600360006101000a81548173ffffffffffffffffffffffffffffffffffffffff021916908373ffffffffffffffffffffffffffffffffffffffff160217905550565b612249612244612eb2565b6129e9565b61229e576040517f08c379a0000000000000000000000000000000000000000000000000000000008152600401808060200182810382526040815260200180614c7e6040913960400191505060405180910390fd5b6122a781613b43565b50565b6122ba6122b5612eb2565b6129e9565b61230f576040517f08c379a0000000000000000000000000000000000000000000000000000000008152600401808060200182810382526040815260200180614c7e6040913960400191505060405180910390fd5b61231881613b9d565b50565b6000600a6000838152602001908152602001600020549050919050565b6000600360009054906101000a900473ffffffffffffffffffffffffffffffffffffffff16905090565b6000600360009054906101000a900473ffffffffffffffffffffffffffffffffffffffff1673ffffffffffffffffffffffffffffffffffffffff166123a5612eb2565b73ffffffffffffffffffffffffffffffffffffffff1614905090565b600c8054600181600116156101000203166002900480601f0160208091040260200160405190810160405280929190818152602001828054600181600116156101000203166002900480156124575780601f1061242c57610100808354040283529160200191612457565b820191906000526020600020905b81548152906001019060200180831161243a57829003601f168201915b505050505081565b61246f61246a612eb2565b6125e3565b6124c4576040517f08c379a0000000000000000000000000000000000000000000000000000000008152600401808060200182810382526030815260200180614b366030913960400191505060405180910390fd5b6124cd81613bb7565b50565b6124e06124db612eb2565b6139c0565b565b80600160003373ffffffffffffffffffffffffffffffffffffffff1673ffffffffffffffffffffffffffffffffffffffff16815260200190815260200160002060008473ffffffffffffffffffffffffffffffffffffffff1673ffffffffffffffffffffffffffffffffffffffff16815260200190815260200160002060006101000a81548160ff0219169083151502179055508173ffffffffffffffffffffffffffffffffffffffff163373ffffffffffffffffffffffffffffffffffffffff167f17307eab39ab6107e8899845ad3d59bd9653f200f220920489ca2b5937696c3183604051808215151515815260200191505060405180910390a35050565b60006125f9826004613c1190919063ffffffff16565b9050919050565b600061261261260d612eb2565b6129e9565b612667576040517f08c379a0000000000000000000000000000000000000000000000000000000008152600401808060200182810382526040815260200180614c7e6040913960400191505060405180910390fd5b868611156126c0576040517f08c379a000000000000000000000000000000000000000000000000000000000815260040180806020018281038252602d815260200180614c2f602d913960400191505060405180910390fd5b60006126ca613cef565b90506126d4613d0c565b336008600083815260200190815260200160002060006101000a81548173ffffffffffffffffffffffffffffffffffffffff021916908373ffffffffffffffffffffffffffffffffffffffff16021790555060008686905011156127be578585600d60008481526020019081526020016000209190612754929190614960565b50807f6bb7ff708619ba0610cba295a58592e0451dee2622938c8755667688daf3529b878760405180806020018281038252848482818152602001925080828437600081840152601f19601f820116905080830192505050935050505060405180910390a2612952565b807f6bb7ff708619ba0610cba295a58592e0451dee2622938c8755667688daf3529b60026127eb84612eba565b60405160200180838054600181600116156101000203166002900480156128495780601f10612827576101008083540402835291820191612849565b820191906000526020600020905b815481529060010190602001808311612835575b505082805190602001908083835b6020831061287a5780518252602082019150602081019050602083039250612857565b6001836020036101000a038019825116818451168082178552505050505050905001807f2e6a736f6e000000000000000000000000000000000000000000000000000000815250600501925050506040516020818303038152906040526040518080602001828103825283818151815260200191508051906020019080838360005b838110156129175780820151818401526020810190506128fc565b50505050905090810190601f1680156129445780820380516001836020036101000a031916815260200191505b509250505060405180910390a25b600087146129ab576129aa33828987878080601f016020809104026020016040519081016040528093929190818152602001838380828437600081840152601f19601f82011690508083019250505050505050613075565b5b86600960008381526020019081526020016000208190555087600a600083815260200190815260200160002081905550809150509695505050505050565b60006129ff826005613c1190919063ffffffff16565b9050919050565b600060096000838152602001908152602001600020549050919050565b60086020528060005260406000206000915054906101000a900473ffffffffffffffffffffffffffffffffffffffff1681565b600080600660009054906101000a900473ffffffffffffffffffffffffffffffffffffffff1690508273ffffffffffffffffffffffffffffffffffffffff168173ffffffffffffffffffffffffffffffffffffffff1663c4552791866040518263ffffffff1660e01b8152600401808273ffffffffffffffffffffffffffffffffffffffff1673ffffffffffffffffffffffffffffffffffffffff16815260200191505060206040518083038186803b158015612b1257600080fd5b505afa158015612b26573d6000803e3d6000fd5b505050506040513d6020811015612b3c57600080fd5b810190808051906020019092919050505073ffffffffffffffffffffffffffffffffffffffff161415612b73576001915050612b81565b612b7d8484613d20565b9150505b92915050565b8473ffffffffffffffffffffffffffffffffffffffff163373ffffffffffffffffffffffffffffffffffffffff161480612bc75750612bc68533612a56565b5b612c1c576040517f08c379a000000000000000000000000000000000000000000000000000000000815260040180806020018281038252602a815260200180614ad7602a913960400191505060405180910390fd5b600073ffffffffffffffffffffffffffffffffffffffff168473ffffffffffffffffffffffffffffffffffffffff161415612ca2576040517f08c379a000000000000000000000000000000000000000000000000000000000815260040180806020018281038252602b815260200180614a86602b913960400191505060405180910390fd5b612cae85858585613db4565b612cbb8585858585613fa8565b5050505050565b612cca612362565b612d3c576040517f08c379a00000000000000000000000000000000000000000000000000000000081526004018080602001828103825260208152602001807f4f776e61626c653a2063616c6c6572206973206e6f7420746865206f776e657281525060200191505060405180910390fd5b612d45816141e1565b50565b8273ffffffffffffffffffffffffffffffffffffffff163373ffffffffffffffffffffffffffffffffffffffff161480612d885750612d878333612a56565b5b612dfa576040517f08c379a000000000000000000000000000000000000000000000000000000000815260040180806020018281038252601e8152602001807f45524331313535236275726e3a20494e56414c49445f4f50455241544f52000081525060200191505060405180910390fd5b806000808573ffffffffffffffffffffffffffffffffffffffff1673ffffffffffffffffffffffffffffffffffffffff1681526020019081526020016000206000848152602001908152602001600020541015612ea2576040517f08c379a0000000000000000000000000000000000000000000000000000000008152600401808060200182810382526027815260200180614b876027913960400191505060405180910390fd5b612ead838383614327565b505050565b600033905090565b60606000821415612f02576040518060400160405280600181526020017f30000000000000000000000000000000000000000000000000000000000000008152509050612fe8565b6000829050600083905060005b60008314612f31578080600101915050600a8381612f2957fe5b049250612f0f565b6060816040519080825280601f01601f191660200182016040528015612f665781602001600182028038833980820191505090505b50905060006001830390505b60008414612fdf57600a8481612f8457fe5b0660300160f81b82828060019003935081518110612f9e57fe5b60200101907effffffffffffffffffffffffffffffffffffffffffffffffffffffffffffff1916908160001a905350600a8481612fd757fe5b049350612f72565b81955050505050505b919050565b60008082840190508381101561306b576040517f08c379a00000000000000000000000000000000000000000000000000000000081526004018080602001828103825260168152602001807f536166654d617468236164643a204f564552464c4f570000000000000000000081525060200191505060405180910390fd5b8091505092915050565b6130d7826000808773ffffffffffffffffffffffffffffffffffffffff1673ffffffffffffffffffffffffffffffffffffffff168152602001908152602001600020600086815260200190815260200160002054612fed90919063ffffffff16565b6000808673ffffffffffffffffffffffffffffffffffffffff1673ffffffffffffffffffffffffffffffffffffffff1681526020019081526020016000206000858152602001908152602001600020819055508373ffffffffffffffffffffffffffffffffffffffff16600073ffffffffffffffffffffffffffffffffffffffff163373ffffffffffffffffffffffffffffffffffffffff167fc3d58168c5ae7397731d063d5bbf3d657854427343f4c083240f7aacaa2d0f628686604051808381526020018281526020019250505060405180910390a46131bd600085858585613fa8565b50505050565b60008073ffffffffffffffffffffffffffffffffffffffff166008600084815260200190815260200160002060009054906101000a900473ffffffffffffffffffffffffffffffffffffffff1673ffffffffffffffffffffffffffffffffffffffff1614159050919050565b60606000821415613277576040518060400160405280600181526020017f30000000000000000000000000000000000000000000000000000000000000008152509050613357565b600082905060005b600082146132a1578080600101915050600a828161329957fe5b04915061327f565b6060816040519080825280601f01601f1916602001820160405280156132d65781602001600182028038833980820191505090505b50905060006001830390505b6000861461334f57600a86816132f457fe5b0660300160f81b8282806001900393508151811061330e57fe5b60200101907effffffffffffffffffffffffffffffffffffffffffffffffffffffffffffff1916908160001a905350600a868161334757fe5b0495506132e2565b819450505050505b919050565b60606133988383604051806020016040528060008152506040518060200160405280600081525060405180602001604052806000815250614466565b905092915050565b80518251146133fa576040517f08c379a0000000000000000000000000000000000000000000000000000000008152600401808060200182810382526035815260200180614b016035913960400191505060405180910390fd5b60008251905060008090505b818110156135f75761349683828151811061341d57fe5b60200260200101516000808973ffffffffffffffffffffffffffffffffffffffff1673ffffffffffffffffffffffffffffffffffffffff168152602001908152602001600020600087858151811061347157fe5b602002602001015181526020019081526020016000205461472c90919063ffffffff16565b6000808873ffffffffffffffffffffffffffffffffffffffff1673ffffffffffffffffffffffffffffffffffffffff16815260200190815260200160002060008684815181106134e257fe5b602002602001015181526020019081526020016000208190555061358483828151811061350b57fe5b60200260200101516000808873ffffffffffffffffffffffffffffffffffffffff1673ffffffffffffffffffffffffffffffffffffffff168152602001908152602001600020600087858151811061355f57fe5b6020026020010151815260200190815260200160002054612fed90919063ffffffff16565b6000808773ffffffffffffffffffffffffffffffffffffffff1673ffffffffffffffffffffffffffffffffffffffff16815260200190815260200160002060008684815181106135d057fe5b60200260200101518152602001908152602001600020819055508080600101915050613406565b508373ffffffffffffffffffffffffffffffffffffffff168573ffffffffffffffffffffffffffffffffffffffff163373ffffffffffffffffffffffffffffffffffffffff167f4a39dc06d4c0dbc64b70af90fd698a233a518aa5d07e595d983b8c0526c8f7fb8686604051808060200180602001838103835285818151815260200191508051906020019060200280838360005b838110156136a757808201518184015260208101905061368c565b50505050905001838103825284818151815260200191508051906020019060200280838360005b838110156136e95780820151818401526020810190506136ce565b5050505090500194505050505060405180910390a45050505050565b6137248473ffffffffffffffffffffffffffffffffffffffff166147b5565b156139b95760008473ffffffffffffffffffffffffffffffffffffffff1663bc197c8133888787876040518663ffffffff1660e01b8152600401808673ffffffffffffffffffffffffffffffffffffffff1673ffffffffffffffffffffffffffffffffffffffff1681526020018573ffffffffffffffffffffffffffffffffffffffff1673ffffffffffffffffffffffffffffffffffffffff168152602001806020018060200180602001848103845287818151815260200191508051906020019060200280838360005b8381101561380a5780820151818401526020810190506137ef565b50505050905001848103835286818151815260200191508051906020019060200280838360005b8381101561384c578082015181840152602081019050613831565b50505050905001848103825285818151815260200191508051906020019080838360005b8381101561388b578082015181840152602081019050613870565b50505050905090810190601f1680156138b85780820380516001836020036101000a031916815260200191505b5098505050505050505050602060405180830381600087803b1580156138dd57600080fd5b505af11580156138f1573d6000803e3d6000fd5b505050506040513d602081101561390757600080fd5b8101908080519060200190929190505050905063bc197c8160e01b7bffffffffffffffffffffffffffffffffffffffffffffffffffffffff1916817bffffffffffffffffffffffffffffffffffffffffffffffffffffffff1916146139b7576040517f08c379a000000000000000000000000000000000000000000000000000000000815260040180806020018281038252603f815260200180614d19603f913960400191505060405180910390fd5b505b5050505050565b6139d48160046147c890919063ffffffff16565b8073ffffffffffffffffffffffffffffffffffffffff167fe94479a9f7e1952cc78f2d6baab678adc1b772d936c6583def489e524cb6669260405160405180910390a250565b613a2e8160056147c890919063ffffffff16565b8073ffffffffffffffffffffffffffffffffffffffff167f0a8eb35e5ca14b3d6f28e4abf2f128dbab231a58b56e89beb5d636115001e16560405160405180910390a250565b6000613a7e612eb2565b905080600360006101000a81548173ffffffffffffffffffffffffffffffffffffffff021916908373ffffffffffffffffffffffffffffffffffffffff1602179055508073ffffffffffffffffffffffffffffffffffffffff16600073ffffffffffffffffffffffffffffffffffffffff167f8be0079c531659141344cd1fd0a4f28419497f9722a3daafe3b4186f6b6457e060405160405180910390a350565b613b2f613b2a612eb2565b613bb7565b565b613b41613b3c612eb2565b613b43565b565b613b5781600561488590919063ffffffff16565b8073ffffffffffffffffffffffffffffffffffffffff167f22380c05984257a1cb900161c713dd71d39e74820f1aea43bd3f1bdd2096129960405160405180910390a250565b8060029080519060200190613bb39291906149e0565b5050565b613bcb81600461488590919063ffffffff16565b8073ffffffffffffffffffffffffffffffffffffffff167f6ae172837ea30b801fbfcdd4108aa1d5bf8ff775444fd70256b44e6bf3dfc3f660405160405180910390a250565b60008073ffffffffffffffffffffffffffffffffffffffff168273ffffffffffffffffffffffffffffffffffffffff161415613c98576040517f08c379a0000000000000000000000000000000000000000000000000000000008152600401808060200182810382526022815260200180614c5c6022913960400191505060405180910390fd5b8260000160008373ffffffffffffffffffffffffffffffffffffffff1673ffffffffffffffffffffffffffffffffffffffff16815260200190815260200160002060009054906101000a900460ff16905092915050565b6000613d076001600754612fed90919063ffffffff16565b905090565b600760008154809291906001019190505550565b6000600160008473ffffffffffffffffffffffffffffffffffffffff1673ffffffffffffffffffffffffffffffffffffffff16815260200190815260200160002060008373ffffffffffffffffffffffffffffffffffffffff1673ffffffffffffffffffffffffffffffffffffffff16815260200190815260200160002060009054906101000a900460ff16905092915050565b613e16816000808773ffffffffffffffffffffffffffffffffffffffff1673ffffffffffffffffffffffffffffffffffffffff16815260200190815260200160002060008581526020019081526020016000205461472c90919063ffffffff16565b6000808673ffffffffffffffffffffffffffffffffffffffff1673ffffffffffffffffffffffffffffffffffffffff168152602001908152602001600020600084815260200190815260200160002081905550613ecb816000808673ffffffffffffffffffffffffffffffffffffffff1673ffffffffffffffffffffffffffffffffffffffff168152602001908152602001600020600085815260200190815260200160002054612fed90919063ffffffff16565b6000808573ffffffffffffffffffffffffffffffffffffffff1673ffffffffffffffffffffffffffffffffffffffff1681526020019081526020016000206000848152602001908152602001600020819055508273ffffffffffffffffffffffffffffffffffffffff168473ffffffffffffffffffffffffffffffffffffffff163373ffffffffffffffffffffffffffffffffffffffff167fc3d58168c5ae7397731d063d5bbf3d657854427343f4c083240f7aacaa2d0f628585604051808381526020018281526020019250505060405180910390a450505050565b613fc78473ffffffffffffffffffffffffffffffffffffffff166147b5565b156141da5760008473ffffffffffffffffffffffffffffffffffffffff1663f23a6e6133888787876040518663ffffffff1660e01b8152600401808673ffffffffffffffffffffffffffffffffffffffff1673ffffffffffffffffffffffffffffffffffffffff1681526020018573ffffffffffffffffffffffffffffffffffffffff1673ffffffffffffffffffffffffffffffffffffffff16815260200184815260200183815260200180602001828103825283818151815260200191508051906020019080838360005b838110156140ae578082015181840152602081019050614093565b50505050905090810190601f1680156140db5780820380516001836020036101000a031916815260200191505b509650505050505050602060405180830381600087803b1580156140fe57600080fd5b505af1158015614112573d6000803e3d6000fd5b505050506040513d602081101561412857600080fd5b8101908080519060200190929190505050905063f23a6e6160e01b7bffffffffffffffffffffffffffffffffffffffffffffffffffffffff1916817bffffffffffffffffffffffffffffffffffffffffffffffffffffffff1916146141d8576040517f08c379a000000000000000000000000000000000000000000000000000000000815260040180806020018281038252603a815260200180614d58603a913960400191505060405180910390fd5b505b5050505050565b600073ffffffffffffffffffffffffffffffffffffffff168173ffffffffffffffffffffffffffffffffffffffff161415614267576040517f08c379a0000000000000000000000000000000000000000000000000000000008152600401808060200182810382526026815260200180614ab16026913960400191505060405180910390fd5b8073ffffffffffffffffffffffffffffffffffffffff16600360009054906101000a900473ffffffffffffffffffffffffffffffffffffffff1673ffffffffffffffffffffffffffffffffffffffff167f8be0079c531659141344cd1fd0a4f28419497f9722a3daafe3b4186f6b6457e060405160405180910390a380600360006101000a81548173ffffffffffffffffffffffffffffffffffffffff021916908373ffffffffffffffffffffffffffffffffffffffff16021790555050565b614389816000808673ffffffffffffffffffffffffffffffffffffffff1673ffffffffffffffffffffffffffffffffffffffff16815260200190815260200160002060008581526020019081526020016000205461472c90919063ffffffff16565b6000808573ffffffffffffffffffffffffffffffffffffffff1673ffffffffffffffffffffffffffffffffffffffff168152602001908152602001600020600084815260200190815260200160002081905550600073ffffffffffffffffffffffffffffffffffffffff168373ffffffffffffffffffffffffffffffffffffffff163373ffffffffffffffffffffffffffffffffffffffff167fc3d58168c5ae7397731d063d5bbf3d657854427343f4c083240f7aacaa2d0f628585604051808381526020018281526020019250505060405180910390a4505050565b6060808690506060869050606086905060608690506060869050606081518351855187518951010101016040519080825280601f01601f1916602001820160405280156144c25781602001600182028038833980820191505090505b5090506060819050600080905060008090505b8851811015614543578881815181106144ea57fe5b602001015160f81c60f81b83838060010194508151811061450757fe5b60200101907effffffffffffffffffffffffffffffffffffffffffffffffffffffffffffff1916908160001a90535080806001019150506144d5565b5060008090505b87518110156145b85787818151811061455f57fe5b602001015160f81c60f81b83838060010194508151811061457c57fe5b60200101907effffffffffffffffffffffffffffffffffffffffffffffffffffffffffffff1916908160001a905350808060010191505061454a565b5060008090505b865181101561462d578681815181106145d457fe5b602001015160f81c60f81b8383806001019450815181106145f157fe5b60200101907effffffffffffffffffffffffffffffffffffffffffffffffffffffffffffff1916908160001a90535080806001019150506145bf565b5060008090505b85518110156146a25785818151811061464957fe5b602001015160f81c60f81b83838060010194508151811061466657fe5b60200101907effffffffffffffffffffffffffffffffffffffffffffffffffffffffffffff1916908160001a9053508080600101915050614634565b5060008090505b8451811015614717578481815181106146be57fe5b602001015160f81c60f81b8383806001019450815181106146db57fe5b60200101907effffffffffffffffffffffffffffffffffffffffffffffffffffffffffffff1916908160001a90535080806001019150506146a9565b50819850505050505050505095945050505050565b6000828211156147a4576040517f08c379a00000000000000000000000000000000000000000000000000000000081526004018080602001828103825260178152602001807f536166654d617468237375623a20554e444552464c4f5700000000000000000081525060200191505060405180910390fd5b600082840390508091505092915050565b600080823b905060008111915050919050565b6147d28282613c11565b614827576040517f08c379a0000000000000000000000000000000000000000000000000000000008152600401808060200182810382526021815260200180614b666021913960400191505060405180910390fd5b60008260000160008373ffffffffffffffffffffffffffffffffffffffff1673ffffffffffffffffffffffffffffffffffffffff16815260200190815260200160002060006101000a81548160ff0219169083151502179055505050565b61488f8282613c11565b15614902576040517f08c379a000000000000000000000000000000000000000000000000000000000815260040180806020018281038252601f8152602001807f526f6c65733a206163636f756e7420616c72656164792068617320726f6c650081525060200191505060405180910390fd5b60018260000160008373ffffffffffffffffffffffffffffffffffffffff1673ffffffffffffffffffffffffffffffffffffffff16815260200190815260200160002060006101000a81548160ff0219169083151502179055505050565b828054600181600116156101000203166002900490600052602060002090601f016020900481019282601f106149a157803560ff19168380011785556149cf565b828001600101855582156149cf579182015b828111156149ce5782358255916020019190600101906149b3565b5b5090506149dc9190614a60565b5090565b828054600181600116156101000203166002900490600052602060002090601f016020900481019282601f10614a2157805160ff1916838001178555614a4f565b82800160010185558215614a4f579182015b82811115614a4e578251825591602001919060010190614a33565b5b509050614a5c9190614a60565b5090565b614a8291905b80821115614a7e576000816000905550600101614a66565b5090565b9056fe4552433131353523736166655472616e7366657246726f6d3a20494e56414c49445f524543495049454e544f776e61626c653a206e6577206f776e657220697320746865207a65726f20616464726573734552433131353523736166655472616e7366657246726f6d3a20494e56414c49445f4f50455241544f5245524331313535235f7361666542617463685472616e7366657246726f6d3a20494e56414c49445f4152524159535f4c454e4754484d696e746572526f6c653a2063616c6c657220646f6573206e6f74206861766520746865204d696e74657220726f6c65526f6c65733a206163636f756e7420646f6573206e6f74206861766520726f6c65547279696e6720746f206275726e206d6f726520746f6b656e73207468616e20796f75206f776e45524331353520547261646561626c65206d757374206e6f7420626520636f6e73747275637465642079657445524331313535237361666542617463685472616e7366657246726f6d3a20494e56414c49445f524543495049454e544552433732315472616461626c65237572693a204e4f4e4558495354454e545f544f4b454e496e697469616c20737570706c792063616e6e6f74206265206d6f7265207468616e206d617820737570706c79526f6c65733a206163636f756e7420697320746865207a65726f206164647265737357686974656c69737441646d696e526f6c653a2063616c6c657220646f6573206e6f742068617665207468652057686974656c69737441646d696e20726f6c65455243313135352362616c616e63654f6642617463683a20494e56414c49445f41525241595f4c454e47544845524331313535237361666542617463685472616e7366657246726f6d3a20494e56414c49445f4f50455241544f5245524331313535235f63616c6c6f6e45524331313535426174636852656365697665643a20494e56414c49445f4f4e5f524543454956455f4d45535341474545524331313535235f63616c6c6f6e4552433131353552656365697665643a20494e56414c49445f4f4e5f524543454956455f4d455353414745a265627a7a72315820c7b1a330be7158924f6e10a29d1d7e46b427dd8b9879b2e38b9e4c1532423fdb64736f6c63430005100032526f6c65733a206163636f756e7420697320746865207a65726f2061646472657373",
  "source": "pragma solidity ^0.5.16;\r\n\r\ncontract CloneFactory {\r\n\r\n  function createClone(address target) internal returns (address result) {\r\n    bytes20 targetBytes = bytes20(target);\r\n    assembly {\r\n      let clone := mload(0x40)\r\n      mstore(clone, 0x3d602d80600a3d3981f3363d3d373d3d3d363d73000000000000000000000000)\r\n      mstore(add(clone, 0x14), targetBytes)\r\n      mstore(add(clone, 0x28), 0x5af43d82803e903d91602b57fd5bf30000000000000000000000000000000000)\r\n      result := create(0, clone, 0x37)\r\n    }\r\n  }\r\n}\r\n\r\n/**\r\n * @dev Interface of the ERC20 standard as defined in the EIP. Does not include\r\n * the optional functions; to access them see {ERC20Detailed}.\r\n */\r\ninterface IERC20 {\r\n    /**\r\n     * @dev Returns the amount of tokens in existence.\r\n     */\r\n    function totalSupply() external view returns (uint256);\r\n\r\n    /**\r\n     * @dev Returns the amount of tokens owned by `account`.\r\n     */\r\n    function balanceOf(address account) external view returns (uint256);\r\n\r\n    /**\r\n     * @dev Moves `amount` tokens from the caller's account to `recipient`.\r\n     *\r\n     * Returns a boolean value indicating whether the operation succeeded.\r\n     *\r\n     * Emits a {Transfer} event.\r\n     */\r\n    function transfer(address recipient, uint256 amount) external returns (bool);\r\n\r\n    /**\r\n     * @dev Returns the remaining number of tokens that `spender` will be\r\n     * allowed to spend on behalf of `owner` through {transferFrom}. This is\r\n     * zero by default.\r\n     *\r\n     * This value changes when {approve} or {transferFrom} are called.\r\n     */\r\n    function allowance(address owner, address spender) external view returns (uint256);\r\n\r\n    /**\r\n     * @dev Sets `amount` as the allowance of `spender` over the caller's tokens.\r\n     *\r\n     * Returns a boolean value indicating whether the operation succeeded.\r\n     *\r\n     * IMPORTANT: Beware that changing an allowance with this method brings the risk\r\n     * that someone may use both the old and the new allowance by unfortunate\r\n     * transaction ordering. One possible solution to mitigate this race\r\n     * condition is to first reduce the spender's allowance to 0 and set the\r\n     * desired value afterwards:\r\n     * https://github.com/ethereum/EIPs/issues/20#issuecomment-263524729\r\n     *\r\n     * Emits an {Approval} event.\r\n     */\r\n    function approve(address spender, uint256 amount) external returns (bool);\r\n\r\n    /**\r\n     * @dev Moves `amount` tokens from `sender` to `recipient` using the\r\n     * allowance mechanism. `amount` is then deducted from the caller's\r\n     * allowance.\r\n     *\r\n     * Returns a boolean value indicating whether the operation succeeded.\r\n     *\r\n     * Emits a {Transfer} event.\r\n     */\r\n    function transferFrom(address sender, address recipient, uint256 amount) external returns (bool);\r\n\r\n    /**\r\n     * @dev Emitted when `value` tokens are moved from one account (`from`) to\r\n     * another (`to`).\r\n     *\r\n     * Note that `value` may be zero.\r\n     */\r\n    event Transfer(address indexed from, address indexed to, uint256 value);\r\n\r\n    /**\r\n     * @dev Emitted when the allowance of a `spender` for an `owner` is set by\r\n     * a call to {approve}. `value` is the new allowance.\r\n     */\r\n    event Approval(address indexed owner, address indexed spender, uint256 value);\r\n}\r\n\r\n\r\n/**\r\n * @title SafeERC20\r\n * @dev Wrappers around ERC20 operations that throw on failure (when the token\r\n * contract returns false). Tokens that return no value (and instead revert or\r\n * throw on failure) are also supported, non-reverting calls are assumed to be\r\n * successful.\r\n * To use this library you can add a `using SafeERC20 for ERC20;` statement to your contract,\r\n * which allows you to call the safe operations as `token.safeTransfer(...)`, etc.\r\n */\r\nlibrary SafeERC20 {\r\n    using SafeMath for uint256;\r\n    using Address for address;\r\n\r\n    function safeTransfer(IERC20 token, address to, uint256 value) internal {\r\n        _callOptionalReturn(token, abi.encodeWithSelector(token.transfer.selector, to, value));\r\n    }\r\n\r\n    function safeTransferFrom(IERC20 token, address from, address to, uint256 value) internal {\r\n        _callOptionalReturn(token, abi.encodeWithSelector(token.transferFrom.selector, from, to, value));\r\n    }\r\n\r\n    /**\r\n     * @dev Deprecated. This function has issues similar to the ones found in\r\n     * {IERC20-approve}, and its usage is discouraged.\r\n     *\r\n     * Whenever possible, use {safeIncreaseAllowance} and\r\n     * {safeDecreaseAllowance} instead.\r\n     */\r\n    function safeApprove(IERC20 token, address spender, uint256 value) internal {\r\n        // safeApprove should only be called when setting an initial allowance,\r\n        // or when resetting it to zero. To increase and decrease it, use\r\n        // 'safeIncreaseAllowance' and 'safeDecreaseAllowance'\r\n        // solhint-disable-next-line max-line-length\r\n        require((value == 0) || (token.allowance(address(this), spender) == 0),\r\n            \"SafeERC20: approve from non-zero to non-zero allowance\"\r\n        );\r\n        _callOptionalReturn(token, abi.encodeWithSelector(token.approve.selector, spender, value));\r\n    }\r\n\r\n    function safeIncreaseAllowance(IERC20 token, address spender, uint256 value) internal {\r\n        uint256 newAllowance = token.allowance(address(this), spender).add(value);\r\n        _callOptionalReturn(token, abi.encodeWithSelector(token.approve.selector, spender, newAllowance));\r\n    }\r\n\r\n    function safeDecreaseAllowance(IERC20 token, address spender, uint256 value) internal {\r\n        uint256 newAllowance = token.allowance(address(this), spender).sub(value);\r\n        _callOptionalReturn(token, abi.encodeWithSelector(token.approve.selector, spender, newAllowance));\r\n    }\r\n\r\n    /**\r\n     * @dev Imitates a Solidity high-level call (i.e. a regular function call to a contract), relaxing the requirement\r\n     * on the return value: the return value is optional (but if data is returned, it must not be false).\r\n     * @param token The token targeted by the call.\r\n     * @param data The call data (encoded using abi.encode or one of its variants).\r\n     */\r\n    function _callOptionalReturn(IERC20 token, bytes memory data) private {\r\n        // We need to perform a low level call here, to bypass Solidity's return data size checking mechanism, since\r\n        // we're implementing it ourselves. We use {Address.functionCall} to perform this call, which verifies that\r\n        // the target address contains contract code and also asserts for success in the low-level call.\r\n\r\n        bytes memory returndata = address(token).functionCall(data, \"SafeERC20: low-level call failed\");\r\n        if (returndata.length > 0) { // Return data is optional\r\n            // solhint-disable-next-line max-line-length\r\n            require(abi.decode(returndata, (bool)), \"SafeERC20: ERC20 operation did not succeed\");\r\n        }\r\n    }\r\n}\r\n\r\n\r\n/*\r\n * @dev Provides information about the current execution context, including the\r\n * sender of the transaction and its data. While these are generally available\r\n * via msg.sender and msg.data, they should not be accessed in such a direct\r\n * manner, since when dealing with GSN meta-transactions the account sending and\r\n * paying for execution may not be the actual sender (as far as an application\r\n * is concerned).\r\n *\r\n * This contract is only required for intermediate, library-like contracts.\r\n */\r\ncontract Context {\r\n    // Empty internal constructor, to prevent people from mistakenly deploying\r\n    // an instance of this contract, which should be used via inheritance.\r\n    constructor () internal { }\r\n    // solhint-disable-previous-line no-empty-blocks\r\n\r\n    function _msgSender() internal view returns (address payable) {\r\n        return msg.sender;\r\n    }\r\n\r\n    function _msgData() internal view returns (bytes memory) {\r\n        this; // silence state mutability warning without generating bytecode - see https://github.com/ethereum/solidity/issues/2691\r\n        return msg.data;\r\n    }\r\n}\r\n\r\n/**\r\n * @dev Contract module which provides a basic access control mechanism, where\r\n * there is an account (an owner) that can be granted exclusive access to\r\n * specific functions.\r\n *\r\n * This module is used through inheritance. It will make available the modifier\r\n * `onlyOwner`, which can be applied to your functions to restrict their use to\r\n * the owner.\r\n */\r\ncontract Ownable is Context {\r\n    address private _owner;\r\n\r\n    event OwnershipTransferred(address indexed previousOwner, address indexed newOwner);\r\n\r\n    /**\r\n     * @dev Initializes the contract setting the deployer as the initial owner.\r\n     */\r\n    constructor () internal {\r\n        address msgSender = _msgSender();\r\n        _owner = msgSender;\r\n        emit OwnershipTransferred(address(0), msgSender);\r\n    }\r\n\r\n    function initOwnable() internal{\r\n        address msgSender = _msgSender();\r\n        _owner = msgSender;\r\n        emit OwnershipTransferred(address(0), msgSender);\r\n    }\r\n\r\n    /**\r\n     * @dev Returns the address of the current owner.\r\n     */\r\n    function owner() public view returns (address) {\r\n        return _owner;\r\n    }\r\n\r\n    /**\r\n     * @dev Throws if called by any account other than the owner.\r\n     */\r\n    modifier onlyOwner() {\r\n        require(isOwner(), \"Ownable: caller is not the owner\");\r\n        _;\r\n    }\r\n\r\n    /**\r\n     * @dev Returns true if the caller is the current owner.\r\n     */\r\n    function isOwner() public view returns (bool) {\r\n        return _msgSender() == _owner;\r\n    }\r\n\r\n    /**\r\n     * @dev Leaves the contract without owner. It will not be possible to call\r\n     * `onlyOwner` functions anymore. Can only be called by the current owner.\r\n     *\r\n     * NOTE: Renouncing ownership will leave the contract without an owner,\r\n     * thereby removing any functionality that is only available to the owner.\r\n     */\r\n    function renounceOwnership() public onlyOwner {\r\n        emit OwnershipTransferred(_owner, address(0));\r\n        _owner = address(0);\r\n    }\r\n\r\n    /**\r\n     * @dev Transfers ownership of the contract to a new account (`newOwner`).\r\n     * Can only be called by the current owner.\r\n     */\r\n    function transferOwnership(address newOwner) public onlyOwner {\r\n        _transferOwnership(newOwner);\r\n    }\r\n\r\n    /**\r\n     * @dev Transfers ownership of the contract to a new account (`newOwner`).\r\n     */\r\n    function _transferOwnership(address newOwner) internal {\r\n        require(newOwner != address(0), \"Ownable: new owner is the zero address\");\r\n        emit OwnershipTransferred(_owner, newOwner);\r\n        _owner = newOwner;\r\n    }\r\n}\r\n\r\n/**\r\n * @title Roles\r\n * @dev Library for managing addresses assigned to a Role.\r\n */\r\nlibrary Roles {\r\n    struct Role {\r\n        mapping (address => bool) bearer;\r\n    }\r\n\r\n    /**\r\n     * @dev Give an account access to this role.\r\n     */\r\n    function add(Role storage role, address account) internal {\r\n        require(!has(role, account), \"Roles: account already has role\");\r\n        role.bearer[account] = true;\r\n    }\r\n\r\n    /**\r\n     * @dev Remove an account's access to this role.\r\n     */\r\n    function remove(Role storage role, address account) internal {\r\n        require(has(role, account), \"Roles: account does not have role\");\r\n        role.bearer[account] = false;\r\n    }\r\n\r\n    /**\r\n     * @dev Check if an account has this role.\r\n     * @return bool\r\n     */\r\n    function has(Role storage role, address account) internal view returns (bool) {\r\n        require(account != address(0), \"Roles: account is the zero address\");\r\n        return role.bearer[account];\r\n    }\r\n}\r\n\r\ncontract MinterRole is Context {\r\n    using Roles for Roles.Role;\r\n\r\n    event MinterAdded(address indexed account);\r\n    event MinterRemoved(address indexed account);\r\n\r\n    Roles.Role private _minters;\r\n\r\n    function initMinter() internal{\r\n        _addMinter(_msgSender());\r\n    }\r\n\r\n    constructor () internal {\r\n        _addMinter(_msgSender());\r\n    }\r\n\r\n    modifier onlyMinter() {\r\n        require(isMinter(_msgSender()), \"MinterRole: caller does not have the Minter role\");\r\n        _;\r\n    }\r\n\r\n    function isMinter(address account) public view returns (bool) {\r\n        return _minters.has(account);\r\n    }\r\n\r\n    function addMinter(address account) public onlyMinter {\r\n        _addMinter(account);\r\n    }\r\n\r\n    function renounceMinter() public {\r\n        _removeMinter(_msgSender());\r\n    }\r\n\r\n    function _addMinter(address account) internal {\r\n        _minters.add(account);\r\n        emit MinterAdded(account);\r\n    }\r\n\r\n    function _removeMinter(address account) internal {\r\n        _minters.remove(account);\r\n        emit MinterRemoved(account);\r\n    }\r\n}\r\n\r\n/**\r\n * @title WhitelistAdminRole\r\n * @dev WhitelistAdmins are responsible for assigning and removing Whitelisted accounts.\r\n */\r\ncontract WhitelistAdminRole is Context {\r\n    using Roles for Roles.Role;\r\n\r\n    event WhitelistAdminAdded(address indexed account);\r\n    event WhitelistAdminRemoved(address indexed account);\r\n\r\n    Roles.Role private _whitelistAdmins;\r\n\r\n    function initWhiteListAdmin() internal{\r\n        _addWhitelistAdmin(_msgSender());\r\n    }\r\n\r\n    constructor () internal {\r\n        _addWhitelistAdmin(_msgSender());\r\n    }\r\n\r\n    modifier onlyWhitelistAdmin() {\r\n        require(isWhitelistAdmin(_msgSender()), \"WhitelistAdminRole: caller does not have the WhitelistAdmin role\");\r\n        _;\r\n    }\r\n\r\n    function isWhitelistAdmin(address account) public view returns (bool) {\r\n        return _whitelistAdmins.has(account);\r\n    }\r\n\r\n    function addWhitelistAdmin(address account) public onlyWhitelistAdmin {\r\n        _addWhitelistAdmin(account);\r\n    }\r\n\r\n    function renounceWhitelistAdmin() public {\r\n        _removeWhitelistAdmin(_msgSender());\r\n    }\r\n\r\n    function _addWhitelistAdmin(address account) internal {\r\n        _whitelistAdmins.add(account);\r\n        emit WhitelistAdminAdded(account);\r\n    }\r\n\r\n    function _removeWhitelistAdmin(address account) internal {\r\n        _whitelistAdmins.remove(account);\r\n        emit WhitelistAdminRemoved(account);\r\n    }\r\n}\r\n\r\n/**\r\n * @title ERC165\r\n * @dev https://github.com/ethereum/EIPs/blob/master/EIPS/eip-165.md\r\n */\r\ninterface IERC165 {\r\n\r\n    /**\r\n     * @notice Query if a contract implements an interface\r\n     * @dev Interface identification is specified in ERC-165. This function\r\n     * uses less than 30,000 gas\r\n     * @param _interfaceId The interface identifier, as specified in ERC-165\r\n     */\r\n    function supportsInterface(bytes4 _interfaceId)\r\n    external\r\n    view\r\n    returns (bool);\r\n}\r\n\r\n/**\r\n * @title SafeMath\r\n * @dev Unsigned math operations with safety checks that revert on error\r\n */\r\nlibrary SafeMath {\r\n\r\n  /**\r\n   * @dev Multiplies two unsigned integers, reverts on overflow.\r\n   */\r\n  function mul(uint256 a, uint256 b) internal pure returns (uint256) {\r\n    // Gas optimization: this is cheaper than requiring 'a' not being zero, but the\r\n    // benefit is lost if 'b' is also tested.\r\n    // See: https://github.com/OpenZeppelin/openzeppelin-solidity/pull/522\r\n    if (a == 0) {\r\n      return 0;\r\n    }\r\n\r\n    uint256 c = a * b;\r\n    require(c / a == b, \"SafeMath#mul: OVERFLOW\");\r\n\r\n    return c;\r\n  }\r\n\r\n  /**\r\n   * @dev Integer division of two unsigned integers truncating the quotient, reverts on division by zero.\r\n   */\r\n  function div(uint256 a, uint256 b) internal pure returns (uint256) {\r\n    // Solidity only automatically asserts when dividing by 0\r\n    require(b > 0, \"SafeMath#div: DIVISION_BY_ZERO\");\r\n    uint256 c = a / b;\r\n    // assert(a == b * c + a % b); // There is no case in which this doesn't hold\r\n\r\n    return c;\r\n  }\r\n\r\n  /**\r\n   * @dev Subtracts two unsigned integers, reverts on overflow (i.e. if subtrahend is greater than minuend).\r\n   */\r\n  function sub(uint256 a, uint256 b) internal pure returns (uint256) {\r\n    require(b <= a, \"SafeMath#sub: UNDERFLOW\");\r\n    uint256 c = a - b;\r\n\r\n    return c;\r\n  }\r\n\r\n  /**\r\n   * @dev Adds two unsigned integers, reverts on overflow.\r\n   */\r\n  function add(uint256 a, uint256 b) internal pure returns (uint256) {\r\n    uint256 c = a + b;\r\n    require(c >= a, \"SafeMath#add: OVERFLOW\");\r\n\r\n    return c;\r\n  }\r\n\r\n  /**\r\n   * @dev Divides two unsigned integers and returns the remainder (unsigned integer modulo),\r\n   * reverts when dividing by zero.\r\n   */\r\n  function mod(uint256 a, uint256 b) internal pure returns (uint256) {\r\n    require(b != 0, \"SafeMath#mod: DIVISION_BY_ZERO\");\r\n    return a % b;\r\n  }\r\n\r\n}\r\n\r\n/**\r\n * @dev ERC-1155 interface for accepting safe transfers.\r\n */\r\ninterface IERC1155TokenReceiver {\r\n\r\n  /**\r\n   * @notice Handle the receipt of a single ERC1155 token type\r\n   * @dev An ERC1155-compliant smart contract MUST call this function on the token recipient contract, at the end of a `safeTransferFrom` after the balance has been updated\r\n   * This function MAY throw to revert and reject the transfer\r\n   * Return of other amount than the magic value MUST result in the transaction being reverted\r\n   * Note: The token contract address is always the message sender\r\n   * @param _operator  The address which called the `safeTransferFrom` function\r\n   * @param _from      The address which previously owned the token\r\n   * @param _id        The id of the token being transferred\r\n   * @param _amount    The amount of tokens being transferred\r\n   * @param _data      Additional data with no specified format\r\n   * @return           `bytes4(keccak256(\"onERC1155Received(address,address,uint256,uint256,bytes)\"))`\r\n   */\r\n  function onERC1155Received(address _operator, address _from, uint256 _id, uint256 _amount, bytes calldata _data) external returns(bytes4);\r\n\r\n  /**\r\n   * @notice Handle the receipt of multiple ERC1155 token types\r\n   * @dev An ERC1155-compliant smart contract MUST call this function on the token recipient contract, at the end of a `safeBatchTransferFrom` after the balances have been updated\r\n   * This function MAY throw to revert and reject the transfer\r\n   * Return of other amount than the magic value WILL result in the transaction being reverted\r\n   * Note: The token contract address is always the message sender\r\n   * @param _operator  The address which called the `safeBatchTransferFrom` function\r\n   * @param _from      The address which previously owned the token\r\n   * @param _ids       An array containing ids of each token being transferred\r\n   * @param _amounts   An array containing amounts of each token being transferred\r\n   * @param _data      Additional data with no specified format\r\n   * @return           `bytes4(keccak256(\"onERC1155BatchReceived(address,address,uint256[],uint256[],bytes)\"))`\r\n   */\r\n  function onERC1155BatchReceived(address _operator, address _from, uint256[] calldata _ids, uint256[] calldata _amounts, bytes calldata _data) external returns(bytes4);\r\n\r\n  /**\r\n   * @notice Indicates whether a contract implements the `ERC1155TokenReceiver` functions and so can accept ERC1155 token types.\r\n   * @param  interfaceID The ERC-165 interface ID that is queried for support.s\r\n   * @dev This function MUST return true if it implements the ERC1155TokenReceiver interface and ERC-165 interface.\r\n   *      This function MUST NOT consume more than 5,000 gas.\r\n   * @return Wheter ERC-165 or ERC1155TokenReceiver interfaces are supported.\r\n   */\r\n  function supportsInterface(bytes4 interfaceID) external view returns (bool);\r\n\r\n}\r\n\r\ninterface IERC1155 {\r\n  // Events\r\n\r\n  /**\r\n   * @dev Either TransferSingle or TransferBatch MUST emit when tokens are transferred, including zero amount transfers as well as minting or burning\r\n   *   Operator MUST be msg.sender\r\n   *   When minting/creating tokens, the `_from` field MUST be set to `0x0`\r\n   *   When burning/destroying tokens, the `_to` field MUST be set to `0x0`\r\n   *   The total amount transferred from address 0x0 minus the total amount transferred to 0x0 may be used by clients and exchanges to be added to the \"circulating supply\" for a given token ID\r\n   *   To broadcast the existence of a token ID with no initial balance, the contract SHOULD emit the TransferSingle event from `0x0` to `0x0`, with the token creator as `_operator`, and a `_amount` of 0\r\n   */\r\n  event TransferSingle(address indexed _operator, address indexed _from, address indexed _to, uint256 _id, uint256 _amount);\r\n\r\n  /**\r\n   * @dev Either TransferSingle or TransferBatch MUST emit when tokens are transferred, including zero amount transfers as well as minting or burning\r\n   *   Operator MUST be msg.sender\r\n   *   When minting/creating tokens, the `_from` field MUST be set to `0x0`\r\n   *   When burning/destroying tokens, the `_to` field MUST be set to `0x0`\r\n   *   The total amount transferred from address 0x0 minus the total amount transferred to 0x0 may be used by clients and exchanges to be added to the \"circulating supply\" for a given token ID\r\n   *   To broadcast the existence of multiple token IDs with no initial balance, this SHOULD emit the TransferBatch event from `0x0` to `0x0`, with the token creator as `_operator`, and a `_amount` of 0\r\n   */\r\n  event TransferBatch(address indexed _operator, address indexed _from, address indexed _to, uint256[] _ids, uint256[] _amounts);\r\n\r\n  /**\r\n   * @dev MUST emit when an approval is updated\r\n   */\r\n  event ApprovalForAll(address indexed _owner, address indexed _operator, bool _approved);\r\n\r\n  /**\r\n   * @dev MUST emit when the URI is updated for a token ID\r\n   *   URIs are defined in RFC 3986\r\n   *   The URI MUST point a JSON file that conforms to the \"ERC-1155 Metadata JSON Schema\"\r\n   */\r\n  event URI(string _amount, uint256 indexed _id);\r\n\r\n  /**\r\n   * @notice Transfers amount of an _id from the _from address to the _to address specified\r\n   * @dev MUST emit TransferSingle event on success\r\n   * Caller must be approved to manage the _from account's tokens (see isApprovedForAll)\r\n   * MUST throw if `_to` is the zero address\r\n   * MUST throw if balance of sender for token `_id` is lower than the `_amount` sent\r\n   * MUST throw on any other error\r\n   * When transfer is complete, this function MUST check if `_to` is a smart contract (code size > 0). If so, it MUST call `onERC1155Received` on `_to` and revert if the return amount is not `bytes4(keccak256(\"onERC1155Received(address,address,uint256,uint256,bytes)\"))`\r\n   * @param _from    Source address\r\n   * @param _to      Target address\r\n   * @param _id      ID of the token type\r\n   * @param _amount  Transfered amount\r\n   * @param _data    Additional data with no specified format, sent in call to `_to`\r\n   */\r\n  function safeTransferFrom(address _from, address _to, uint256 _id, uint256 _amount, bytes calldata _data) external;\r\n\r\n  /**\r\n   * @notice Send multiple types of Tokens from the _from address to the _to address (with safety call)\r\n   * @dev MUST emit TransferBatch event on success\r\n   * Caller must be approved to manage the _from account's tokens (see isApprovedForAll)\r\n   * MUST throw if `_to` is the zero address\r\n   * MUST throw if length of `_ids` is not the same as length of `_amounts`\r\n   * MUST throw if any of the balance of sender for token `_ids` is lower than the respective `_amounts` sent\r\n   * MUST throw on any other error\r\n   * When transfer is complete, this function MUST check if `_to` is a smart contract (code size > 0). If so, it MUST call `onERC1155BatchReceived` on `_to` and revert if the return amount is not `bytes4(keccak256(\"onERC1155BatchReceived(address,address,uint256[],uint256[],bytes)\"))`\r\n   * Transfers and events MUST occur in the array order they were submitted (_ids[0] before _ids[1], etc)\r\n   * @param _from     Source addresses\r\n   * @param _to       Target addresses\r\n   * @param _ids      IDs of each token type\r\n   * @param _amounts  Transfer amounts per token type\r\n   * @param _data     Additional data with no specified format, sent in call to `_to`\r\n  */\r\n  function safeBatchTransferFrom(address _from, address _to, uint256[] calldata _ids, uint256[] calldata _amounts, bytes calldata _data) external;\r\n\r\n  /**\r\n   * @notice Get the balance of an account's Tokens\r\n   * @param _owner  The address of the token holder\r\n   * @param _id     ID of the Token\r\n   * @return        The _owner's balance of the Token type requested\r\n   */\r\n  function balanceOf(address _owner, uint256 _id) external view returns (uint256);\r\n\r\n  /**\r\n   * @notice Get the balance of multiple account/token pairs\r\n   * @param _owners The addresses of the token holders\r\n   * @param _ids    ID of the Tokens\r\n   * @return        The _owner's balance of the Token types requested (i.e. balance for each (owner, id) pair)\r\n   */\r\n  function balanceOfBatch(address[] calldata _owners, uint256[] calldata _ids) external view returns (uint256[] memory);\r\n\r\n  /**\r\n   * @notice Enable or disable approval for a third party (\"operator\") to manage all of caller's tokens\r\n   * @dev MUST emit the ApprovalForAll event on success\r\n   * @param _operator  Address to add to the set of authorized operators\r\n   * @param _approved  True if the operator is approved, false to revoke approval\r\n   */\r\n  function setApprovalForAll(address _operator, bool _approved) external;\r\n\r\n  /**\r\n   * @notice Queries the approval status of an operator for a given owner\r\n   * @param _owner     The owner of the Tokens\r\n   * @param _operator  Address of authorized operator\r\n   * @return           True if the operator is approved, false if not\r\n   */\r\n  function isApprovedForAll(address _owner, address _operator) external view returns (bool isOperator);\r\n\r\n}\r\n\r\nlibrary Address {\r\n    /**\r\n     * @dev Returns true if `account` is a contract.\r\n     *\r\n     * [IMPORTANT]\r\n     * ====\r\n     * It is unsafe to assume that an address for which this function returns\r\n     * false is an externally-owned account (EOA) and not a contract.\r\n     *\r\n     * Among others, `isContract` will return false for the following\r\n     * types of addresses:\r\n     *\r\n     *  - an externally-owned account\r\n     *  - a contract in construction\r\n     *  - an address where a contract will be created\r\n     *  - an address where a contract lived, but was destroyed\r\n     * ====\r\n     */\r\n    function isContract(address account) internal view returns (bool) {\r\n        // This method relies on extcodesize, which returns 0 for contracts in\r\n        // construction, since the code is only stored at the end of the\r\n        // constructor execution.\r\n\r\n        uint256 size;\r\n        // solhint-disable-next-line no-inline-assembly\r\n        assembly { size := extcodesize(account) }\r\n        return size > 0;\r\n    }\r\n\r\n    /**\r\n     * @dev Replacement for Solidity's `transfer`: sends `amount` wei to\r\n     * `recipient`, forwarding all available gas and reverting on errors.\r\n     *\r\n     * https://eips.ethereum.org/EIPS/eip-1884[EIP1884] increases the gas cost\r\n     * of certain opcodes, possibly making contracts go over the 2300 gas limit\r\n     * imposed by `transfer`, making them unable to receive funds via\r\n     * `transfer`. {sendValue} removes this limitation.\r\n     *\r\n     * https://diligence.consensys.net/posts/2019/09/stop-using-soliditys-transfer-now/[Learn more].\r\n     *\r\n     * IMPORTANT: because control is transferred to `recipient`, care must be\r\n     * taken to not create reentrancy vulnerabilities. Consider using\r\n     * {ReentrancyGuard} or the\r\n     * https://solidity.readthedocs.io/en/v0.5.11/security-considerations.html#use-the-checks-effects-interactions-pattern[checks-effects-interactions pattern].\r\n     */\r\n    function sendValue(address payable recipient, uint256 amount) internal {\r\n        require(address(this).balance >= amount, \"Address: insufficient balance\");\r\n\r\n        // solhint-disable-next-line avoid-low-level-calls, avoid-call-value\r\n        (bool success, ) = recipient.call.value(amount)(\"\");\r\n        require(success, \"Address: unable to send value, recipient may have reverted\");\r\n    }\r\n\r\n    /**\r\n     * @dev Performs a Solidity function call using a low level `call`. A\r\n     * plain`call` is an unsafe replacement for a function call: use this\r\n     * function instead.\r\n     *\r\n     * If `target` reverts with a revert reason, it is bubbled up by this\r\n     * function (like regular Solidity function calls).\r\n     *\r\n     * Returns the raw returned data. To convert to the expected return value,\r\n     * use https://solidity.readthedocs.io/en/latest/units-and-global-variables.html?highlight=abi.decode#abi-encoding-and-decoding-functions[`abi.decode`].\r\n     *\r\n     * Requirements:\r\n     *\r\n     * - `target` must be a contract.\r\n     * - calling `target` with `data` must not revert.\r\n     *\r\n     * _Available since v3.1._\r\n     */\r\n    function functionCall(address target, bytes memory data) internal returns (bytes memory) {\r\n      return functionCall(target, data, \"Address: low-level call failed\");\r\n    }\r\n\r\n    /**\r\n     * @dev Same as {xref-Address-functionCall-address-bytes-}[`functionCall`], but with\r\n     * `errorMessage` as a fallback revert reason when `target` reverts.\r\n     *\r\n     * _Available since v3.1._\r\n     */\r\n    function functionCall(address target, bytes memory data, string memory errorMessage) internal returns (bytes memory) {\r\n        return functionCallWithValue(target, data, 0, errorMessage);\r\n    }\r\n\r\n    /**\r\n     * @dev Same as {xref-Address-functionCall-address-bytes-}[`functionCall`],\r\n     * but also transferring `value` wei to `target`.\r\n     *\r\n     * Requirements:\r\n     *\r\n     * - the calling contract must have an ETH balance of at least `value`.\r\n     * - the called Solidity function must be `payable`.\r\n     *\r\n     * _Available since v3.1._\r\n     */\r\n    function functionCallWithValue(address target, bytes memory data, uint256 value) internal returns (bytes memory) {\r\n        return functionCallWithValue(target, data, value, \"Address: low-level call with value failed\");\r\n    }\r\n\r\n    /**\r\n     * @dev Same as {xref-Address-functionCallWithValue-address-bytes-uint256-}[`functionCallWithValue`], but\r\n     * with `errorMessage` as a fallback revert reason when `target` reverts.\r\n     *\r\n     * _Available since v3.1._\r\n     */\r\n    function functionCallWithValue(address target, bytes memory data, uint256 value, string memory errorMessage) internal returns (bytes memory) {\r\n        require(address(this).balance >= value, \"Address: insufficient balance for call\");\r\n        require(isContract(target), \"Address: call to non-contract\");\r\n\r\n        // solhint-disable-next-line avoid-low-level-calls\r\n        (bool success, bytes memory returndata) = target.call.value(value)(data);\r\n        return _verifyCallResult(success, returndata, errorMessage);\r\n    }\r\n\r\n    /**\r\n     * @dev Same as {xref-Address-functionCall-address-bytes-}[`functionCall`],\r\n     * but performing a static call.\r\n     *\r\n     * _Available since v3.3._\r\n     */\r\n    function functionStaticCall(address target, bytes memory data) internal view returns (bytes memory) {\r\n        return functionStaticCall(target, data, \"Address: low-level static call failed\");\r\n    }\r\n\r\n    /**\r\n     * @dev Same as {xref-Address-functionCall-address-bytes-string-}[`functionCall`],\r\n     * but performing a static call.\r\n     *\r\n     * _Available since v3.3._\r\n     */\r\n    function functionStaticCall(address target, bytes memory data, string memory errorMessage) internal view returns (bytes memory) {\r\n        require(isContract(target), \"Address: static call to non-contract\");\r\n\r\n        // solhint-disable-next-line avoid-low-level-calls\r\n        (bool success, bytes memory returndata) = target.staticcall(data);\r\n        return _verifyCallResult(success, returndata, errorMessage);\r\n    }\r\n\r\n    /**\r\n     * @dev Same as {xref-Address-functionCall-address-bytes-}[`functionCall`],\r\n     * but performing a delegate call.\r\n     *\r\n     * _Available since v3.3._\r\n     */\r\n    function functionDelegateCall(address target, bytes memory data) internal returns (bytes memory) {\r\n        return functionDelegateCall(target, data, \"Address: low-level delegate call failed\");\r\n    }\r\n\r\n    /**\r\n     * @dev Same as {xref-Address-functionCall-address-bytes-string-}[`functionCall`],\r\n     * but performing a delegate call.\r\n     *\r\n     * _Available since v3.3._\r\n     */\r\n    function functionDelegateCall(address target, bytes memory data, string memory errorMessage) internal returns (bytes memory) {\r\n        require(isContract(target), \"Address: delegate call to non-contract\");\r\n\r\n        // solhint-disable-next-line avoid-low-level-calls\r\n        (bool success, bytes memory returndata) = target.delegatecall(data);\r\n        return _verifyCallResult(success, returndata, errorMessage);\r\n    }\r\n\r\n    function _verifyCallResult(bool success, bytes memory returndata, string memory errorMessage) private pure returns(bytes memory) {\r\n        if (success) {\r\n            return returndata;\r\n        } else {\r\n            // Look for revert reason and bubble it up if present\r\n            if (returndata.length > 0) {\r\n                // The easiest way to bubble the revert reason is using memory via assembly\r\n\r\n                // solhint-disable-next-line no-inline-assembly\r\n                assembly {\r\n                    let returndata_size := mload(returndata)\r\n                    revert(add(32, returndata), returndata_size)\r\n                }\r\n            } else {\r\n                revert(errorMessage);\r\n            }\r\n        }\r\n    }\r\n}\r\n\r\n/**\r\n * @dev Implementation of Multi-Token Standard contract\r\n */\r\ncontract ERC1155 is IERC165 {\r\n  using SafeMath for uint256;\r\n  using Address for address;\r\n\r\n\r\n  /***********************************|\r\n  |        Variables and Events       |\r\n  |__________________________________*/\r\n\r\n  // onReceive function signatures\r\n  bytes4 constant internal ERC1155_RECEIVED_VALUE = 0xf23a6e61;\r\n  bytes4 constant internal ERC1155_BATCH_RECEIVED_VALUE = 0xbc197c81;\r\n\r\n  // Objects balances\r\n  mapping (address => mapping(uint256 => uint256)) internal balances;\r\n\r\n  // Operator Functions\r\n  mapping (address => mapping(address => bool)) internal operators;\r\n\r\n  // Events\r\n  event TransferSingle(address indexed _operator, address indexed _from, address indexed _to, uint256 _id, uint256 _amount);\r\n  event TransferBatch(address indexed _operator, address indexed _from, address indexed _to, uint256[] _ids, uint256[] _amounts);\r\n  event ApprovalForAll(address indexed _owner, address indexed _operator, bool _approved);\r\n  event URI(string _uri, uint256 indexed _id);\r\n\r\n\r\n  /***********************************|\r\n  |     Public Transfer Functions     |\r\n  |__________________________________*/\r\n\r\n  /**\r\n   * @notice Transfers amount amount of an _id from the _from address to the _to address specified\r\n   * @param _from    Source address\r\n   * @param _to      Target address\r\n   * @param _id      ID of the token type\r\n   * @param _amount  Transfered amount\r\n   * @param _data    Additional data with no specified format, sent in call to `_to`\r\n   */\r\n  function safeTransferFrom(address _from, address _to, uint256 _id, uint256 _amount, bytes memory _data)\r\n    public\r\n  {\r\n    require((msg.sender == _from) || isApprovedForAll(_from, msg.sender), \"ERC1155#safeTransferFrom: INVALID_OPERATOR\");\r\n    require(_to != address(0),\"ERC1155#safeTransferFrom: INVALID_RECIPIENT\");\r\n    // require(_amount >= balances[_from][_id]) is not necessary since checked with safemath operations\r\n\r\n    _safeTransferFrom(_from, _to, _id, _amount);\r\n    _callonERC1155Received(_from, _to, _id, _amount, _data);\r\n  }\r\n\r\n  /**\r\n   * @notice Send multiple types of Tokens from the _from address to the _to address (with safety call)\r\n   * @param _from     Source addresses\r\n   * @param _to       Target addresses\r\n   * @param _ids      IDs of each token type\r\n   * @param _amounts  Transfer amounts per token type\r\n   * @param _data     Additional data with no specified format, sent in call to `_to`\r\n   */\r\n  function safeBatchTransferFrom(address _from, address _to, uint256[] memory _ids, uint256[] memory _amounts, bytes memory _data)\r\n    public\r\n  {\r\n    // Requirements\r\n    require((msg.sender == _from) || isApprovedForAll(_from, msg.sender), \"ERC1155#safeBatchTransferFrom: INVALID_OPERATOR\");\r\n    require(_to != address(0), \"ERC1155#safeBatchTransferFrom: INVALID_RECIPIENT\");\r\n\r\n    _safeBatchTransferFrom(_from, _to, _ids, _amounts);\r\n    _callonERC1155BatchReceived(_from, _to, _ids, _amounts, _data);\r\n  }\r\n\r\n\r\n  /***********************************|\r\n  |    Internal Transfer Functions    |\r\n  |__________________________________*/\r\n\r\n  /**\r\n   * @notice Transfers amount amount of an _id from the _from address to the _to address specified\r\n   * @param _from    Source address\r\n   * @param _to      Target address\r\n   * @param _id      ID of the token type\r\n   * @param _amount  Transfered amount\r\n   */\r\n  function _safeTransferFrom(address _from, address _to, uint256 _id, uint256 _amount)\r\n    internal\r\n  {\r\n    // Update balances\r\n    balances[_from][_id] = balances[_from][_id].sub(_amount); // Subtract amount\r\n    balances[_to][_id] = balances[_to][_id].add(_amount);     // Add amount\r\n\r\n    // Emit event\r\n    emit TransferSingle(msg.sender, _from, _to, _id, _amount);\r\n  }\r\n\r\n  /**\r\n   * @notice Verifies if receiver is contract and if so, calls (_to).onERC1155Received(...)\r\n   */\r\n  function _callonERC1155Received(address _from, address _to, uint256 _id, uint256 _amount, bytes memory _data)\r\n    internal\r\n  {\r\n    // Check if recipient is contract\r\n    if (_to.isContract()) {\r\n      bytes4 retval = IERC1155TokenReceiver(_to).onERC1155Received(msg.sender, _from, _id, _amount, _data);\r\n      require(retval == ERC1155_RECEIVED_VALUE, \"ERC1155#_callonERC1155Received: INVALID_ON_RECEIVE_MESSAGE\");\r\n    }\r\n  }\r\n\r\n  /**\r\n   * @notice Send multiple types of Tokens from the _from address to the _to address (with safety call)\r\n   * @param _from     Source addresses\r\n   * @param _to       Target addresses\r\n   * @param _ids      IDs of each token type\r\n   * @param _amounts  Transfer amounts per token type\r\n   */\r\n  function _safeBatchTransferFrom(address _from, address _to, uint256[] memory _ids, uint256[] memory _amounts)\r\n    internal\r\n  {\r\n    require(_ids.length == _amounts.length, \"ERC1155#_safeBatchTransferFrom: INVALID_ARRAYS_LENGTH\");\r\n\r\n    // Number of transfer to execute\r\n    uint256 nTransfer = _ids.length;\r\n\r\n    // Executing all transfers\r\n    for (uint256 i = 0; i < nTransfer; i++) {\r\n      // Update storage balance of previous bin\r\n      balances[_from][_ids[i]] = balances[_from][_ids[i]].sub(_amounts[i]);\r\n      balances[_to][_ids[i]] = balances[_to][_ids[i]].add(_amounts[i]);\r\n    }\r\n\r\n    // Emit event\r\n    emit TransferBatch(msg.sender, _from, _to, _ids, _amounts);\r\n  }\r\n\r\n  /**\r\n   * @notice Verifies if receiver is contract and if so, calls (_to).onERC1155BatchReceived(...)\r\n   */\r\n  function _callonERC1155BatchReceived(address _from, address _to, uint256[] memory _ids, uint256[] memory _amounts, bytes memory _data)\r\n    internal\r\n  {\r\n    // Pass data if recipient is contract\r\n    if (_to.isContract()) {\r\n      bytes4 retval = IERC1155TokenReceiver(_to).onERC1155BatchReceived(msg.sender, _from, _ids, _amounts, _data);\r\n      require(retval == ERC1155_BATCH_RECEIVED_VALUE, \"ERC1155#_callonERC1155BatchReceived: INVALID_ON_RECEIVE_MESSAGE\");\r\n    }\r\n  }\r\n\r\n\r\n  /***********************************|\r\n  |         Operator Functions        |\r\n  |__________________________________*/\r\n\r\n  /**\r\n   * @notice Enable or disable approval for a third party (\"operator\") to manage all of caller's tokens\r\n   * @param _operator  Address to add to the set of authorized operators\r\n   * @param _approved  True if the operator is approved, false to revoke approval\r\n   */\r\n  function setApprovalForAll(address _operator, bool _approved)\r\n    external\r\n  {\r\n    // Update operator status\r\n    operators[msg.sender][_operator] = _approved;\r\n    emit ApprovalForAll(msg.sender, _operator, _approved);\r\n  }\r\n\r\n  /**\r\n   * @notice Queries the approval status of an operator for a given owner\r\n   * @param _owner     The owner of the Tokens\r\n   * @param _operator  Address of authorized operator\r\n   * @return True if the operator is approved, false if not\r\n   */\r\n  function isApprovedForAll(address _owner, address _operator)\r\n    public view returns (bool isOperator)\r\n  {\r\n    return operators[_owner][_operator];\r\n  }\r\n\r\n\r\n  /***********************************|\r\n  |         Balance Functions         |\r\n  |__________________________________*/\r\n\r\n  /**\r\n   * @notice Get the balance of an account's Tokens\r\n   * @param _owner  The address of the token holder\r\n   * @param _id     ID of the Token\r\n   * @return The _owner's balance of the Token type requested\r\n   */\r\n  function balanceOf(address _owner, uint256 _id)\r\n    public view returns (uint256)\r\n  {\r\n    return balances[_owner][_id];\r\n  }\r\n\r\n  /**\r\n   * @notice Get the balance of multiple account/token pairs\r\n   * @param _owners The addresses of the token holders\r\n   * @param _ids    ID of the Tokens\r\n   * @return        The _owner's balance of the Token types requested (i.e. balance for each (owner, id) pair)\r\n   */\r\n  function balanceOfBatch(address[] memory _owners, uint256[] memory _ids)\r\n    public view returns (uint256[] memory)\r\n  {\r\n    require(_owners.length == _ids.length, \"ERC1155#balanceOfBatch: INVALID_ARRAY_LENGTH\");\r\n\r\n    // Variables\r\n    uint256[] memory batchBalances = new uint256[](_owners.length);\r\n\r\n    // Iterate over each owner and token ID\r\n    for (uint256 i = 0; i < _owners.length; i++) {\r\n      batchBalances[i] = balances[_owners[i]][_ids[i]];\r\n    }\r\n\r\n    return batchBalances;\r\n  }\r\n\r\n\r\n  /***********************************|\r\n  |          ERC165 Functions         |\r\n  |__________________________________*/\r\n\r\n  /**\r\n   * INTERFACE_SIGNATURE_ERC165 = bytes4(keccak256(\"supportsInterface(bytes4)\"));\r\n   */\r\n  bytes4 constant private INTERFACE_SIGNATURE_ERC165 = 0x01ffc9a7;\r\n\r\n  /**\r\n   * INTERFACE_SIGNATURE_ERC1155 =\r\n   * bytes4(keccak256(\"safeTransferFrom(address,address,uint256,uint256,bytes)\")) ^\r\n   * bytes4(keccak256(\"safeBatchTransferFrom(address,address,uint256[],uint256[],bytes)\")) ^\r\n   * bytes4(keccak256(\"balanceOf(address,uint256)\")) ^\r\n   * bytes4(keccak256(\"balanceOfBatch(address[],uint256[])\")) ^\r\n   * bytes4(keccak256(\"setApprovalForAll(address,bool)\")) ^\r\n   * bytes4(keccak256(\"isApprovedForAll(address,address)\"));\r\n   */\r\n  bytes4 constant private INTERFACE_SIGNATURE_ERC1155 = 0xd9b67a26;\r\n\r\n  /**\r\n   * @notice Query if a contract implements an interface\r\n   * @param _interfaceID  The interface identifier, as specified in ERC-165\r\n   * @return `true` if the contract implements `_interfaceID` and\r\n   */\r\n  function supportsInterface(bytes4 _interfaceID) external view returns (bool) {\r\n    if (_interfaceID == INTERFACE_SIGNATURE_ERC165 ||\r\n        _interfaceID == INTERFACE_SIGNATURE_ERC1155) {\r\n      return true;\r\n    }\r\n    return false;\r\n  }\r\n\r\n}\r\n\r\n/**\r\n * @notice Contract that handles metadata related methods.\r\n * @dev Methods assume a deterministic generation of URI based on token IDs.\r\n *      Methods also assume that URI uses hex representation of token IDs.\r\n */\r\ncontract ERC1155Metadata {\r\n\r\n  // URI's default URI prefix\r\n  string internal baseMetadataURI;\r\n  event URI(string _uri, uint256 indexed _id);\r\n\r\n\r\n  /***********************************|\r\n  |     Metadata Public Function s    |\r\n  |__________________________________*/\r\n\r\n  /**\r\n   * @notice A distinct Uniform Resource Identifier (URI) for a given token.\r\n   * @dev URIs are defined in RFC 3986.\r\n   *      URIs are assumed to be deterministically generated based on token ID\r\n   *      Token IDs are assumed to be represented in their hex format in URIs\r\n   * @return URI string\r\n   */\r\n  function uri(uint256 _id) public view returns (string memory) {\r\n    return string(abi.encodePacked(baseMetadataURI, _uint2str(_id), \".json\"));\r\n  }\r\n\r\n\r\n  /***********************************|\r\n  |    Metadata Internal Functions    |\r\n  |__________________________________*/\r\n\r\n  /**\r\n   * @notice Will emit default URI log event for corresponding token _id\r\n   * @param _tokenIDs Array of IDs of tokens to log default URI\r\n   */\r\n  function _logURIs(uint256[] memory _tokenIDs) internal {\r\n    string memory baseURL = baseMetadataURI;\r\n    string memory tokenURI;\r\n\r\n    for (uint256 i = 0; i < _tokenIDs.length; i++) {\r\n      tokenURI = string(abi.encodePacked(baseURL, _uint2str(_tokenIDs[i]), \".json\"));\r\n      emit URI(tokenURI, _tokenIDs[i]);\r\n    }\r\n  }\r\n\r\n  /**\r\n   * @notice Will emit a specific URI log event for corresponding token\r\n   * @param _tokenIDs IDs of the token corresponding to the _uris logged\r\n   * @param _URIs    The URIs of the specified _tokenIDs\r\n   */\r\n  function _logURIs(uint256[] memory _tokenIDs, string[] memory _URIs) internal {\r\n    require(_tokenIDs.length == _URIs.length, \"ERC1155Metadata#_logURIs: INVALID_ARRAYS_LENGTH\");\r\n    for (uint256 i = 0; i < _tokenIDs.length; i++) {\r\n      emit URI(_URIs[i], _tokenIDs[i]);\r\n    }\r\n  }\r\n\r\n  /**\r\n   * @notice Will update the base URL of token's URI\r\n   * @param _newBaseMetadataURI New base URL of token's URI\r\n   */\r\n  function _setBaseMetadataURI(string memory _newBaseMetadataURI) internal {\r\n    baseMetadataURI = _newBaseMetadataURI;\r\n  }\r\n\r\n\r\n  /***********************************|\r\n  |    Utility Internal Functions     |\r\n  |__________________________________*/\r\n\r\n  /**\r\n   * @notice Convert uint256 to string\r\n   * @param _i Unsigned integer to convert to string\r\n   */\r\n  function _uint2str(uint256 _i) internal pure returns (string memory _uintAsString) {\r\n    if (_i == 0) {\r\n      return \"0\";\r\n    }\r\n\r\n    uint256 j = _i;\r\n    uint256 ii = _i;\r\n    uint256 len;\r\n\r\n    // Get number of bytes\r\n    while (j != 0) {\r\n      len++;\r\n      j /= 10;\r\n    }\r\n\r\n    bytes memory bstr = new bytes(len);\r\n    uint256 k = len - 1;\r\n\r\n    // Get each individual ASCII\r\n    while (ii != 0) {\r\n      bstr[k--] = byte(uint8(48 + ii % 10));\r\n      ii /= 10;\r\n    }\r\n\r\n    // Convert to string\r\n    return string(bstr);\r\n  }\r\n\r\n}\r\n\r\n/**\r\n * @dev Multi-Fungible Tokens with minting and burning methods. These methods assume\r\n *      a parent contract to be executed as they are `internal` functions\r\n */\r\ncontract ERC1155MintBurn is ERC1155 {\r\n\r\n\r\n  /****************************************|\r\n  |            Minting Functions           |\r\n  |_______________________________________*/\r\n\r\n  /**\r\n   * @notice Mint _amount of tokens of a given id\r\n   * @param _to      The address to mint tokens to\r\n   * @param _id      Token id to mint\r\n   * @param _amount  The amount to be minted\r\n   * @param _data    Data to pass if receiver is contract\r\n   */\r\n  function _mint(address _to, uint256 _id, uint256 _amount, bytes memory _data)\r\n    internal\r\n  {\r\n    // Add _amount\r\n    balances[_to][_id] = balances[_to][_id].add(_amount);\r\n\r\n    // Emit event\r\n    emit TransferSingle(msg.sender, address(0x0), _to, _id, _amount);\r\n\r\n    // Calling onReceive method if recipient is contract\r\n    _callonERC1155Received(address(0x0), _to, _id, _amount, _data);\r\n  }\r\n\r\n  /**\r\n   * @notice Mint tokens for each ids in _ids\r\n   * @param _to       The address to mint tokens to\r\n   * @param _ids      Array of ids to mint\r\n   * @param _amounts  Array of amount of tokens to mint per id\r\n   * @param _data    Data to pass if receiver is contract\r\n   */\r\n  function _batchMint(address _to, uint256[] memory _ids, uint256[] memory _amounts, bytes memory _data)\r\n    internal\r\n  {\r\n    require(_ids.length == _amounts.length, \"ERC1155MintBurn#batchMint: INVALID_ARRAYS_LENGTH\");\r\n\r\n    // Number of mints to execute\r\n    uint256 nMint = _ids.length;\r\n\r\n     // Executing all minting\r\n    for (uint256 i = 0; i < nMint; i++) {\r\n      // Update storage balance\r\n      balances[_to][_ids[i]] = balances[_to][_ids[i]].add(_amounts[i]);\r\n    }\r\n\r\n    // Emit batch mint event\r\n    emit TransferBatch(msg.sender, address(0x0), _to, _ids, _amounts);\r\n\r\n    // Calling onReceive method if recipient is contract\r\n    _callonERC1155BatchReceived(address(0x0), _to, _ids, _amounts, _data);\r\n  }\r\n\r\n\r\n  /****************************************|\r\n  |            Burning Functions           |\r\n  |_______________________________________*/\r\n\r\n  /**\r\n   * @notice Burn _amount of tokens of a given token id\r\n   * @param _from    The address to burn tokens from\r\n   * @param _id      Token id to burn\r\n   * @param _amount  The amount to be burned\r\n   */\r\n  function _burn(address _from, uint256 _id, uint256 _amount)\r\n    internal\r\n  {\r\n    //Substract _amount\r\n    balances[_from][_id] = balances[_from][_id].sub(_amount);\r\n\r\n    // Emit event\r\n    emit TransferSingle(msg.sender, _from, address(0x0), _id, _amount);\r\n  }\r\n\r\n  /**\r\n   * @notice Burn tokens of given token id for each (_ids[i], _amounts[i]) pair\r\n   * @param _from     The address to burn tokens from\r\n   * @param _ids      Array of token ids to burn\r\n   * @param _amounts  Array of the amount to be burned\r\n   */\r\n  function _batchBurn(address _from, uint256[] memory _ids, uint256[] memory _amounts)\r\n    internal\r\n  {\r\n    require(_ids.length == _amounts.length, \"ERC1155MintBurn#batchBurn: INVALID_ARRAYS_LENGTH\");\r\n\r\n    // Number of mints to execute\r\n    uint256 nBurn = _ids.length;\r\n\r\n     // Executing all minting\r\n    for (uint256 i = 0; i < nBurn; i++) {\r\n      // Update storage balance\r\n      balances[_from][_ids[i]] = balances[_from][_ids[i]].sub(_amounts[i]);\r\n    }\r\n\r\n    // Emit batch mint event\r\n    emit TransferBatch(msg.sender, _from, address(0x0), _ids, _amounts);\r\n  }\r\n\r\n}\r\n\r\nlibrary Strings {\r\n\t// via https://github.com/oraclize/ethereum-api/blob/master/oraclizeAPI_0.5.sol\r\n\tfunction strConcat(\r\n\t\tstring memory _a,\r\n\t\tstring memory _b,\r\n\t\tstring memory _c,\r\n\t\tstring memory _d,\r\n\t\tstring memory _e\r\n\t) internal pure returns (string memory) {\r\n\t\tbytes memory _ba = bytes(_a);\r\n\t\tbytes memory _bb = bytes(_b);\r\n\t\tbytes memory _bc = bytes(_c);\r\n\t\tbytes memory _bd = bytes(_d);\r\n\t\tbytes memory _be = bytes(_e);\r\n\t\tstring memory abcde = new string(_ba.length + _bb.length + _bc.length + _bd.length + _be.length);\r\n\t\tbytes memory babcde = bytes(abcde);\r\n\t\tuint256 k = 0;\r\n\t\tfor (uint256 i = 0; i < _ba.length; i++) babcde[k++] = _ba[i];\r\n\t\tfor (uint256 i = 0; i < _bb.length; i++) babcde[k++] = _bb[i];\r\n\t\tfor (uint256 i = 0; i < _bc.length; i++) babcde[k++] = _bc[i];\r\n\t\tfor (uint256 i = 0; i < _bd.length; i++) babcde[k++] = _bd[i];\r\n\t\tfor (uint256 i = 0; i < _be.length; i++) babcde[k++] = _be[i];\r\n\t\treturn string(babcde);\r\n\t}\r\n\r\n\tfunction strConcat(\r\n\t\tstring memory _a,\r\n\t\tstring memory _b,\r\n\t\tstring memory _c,\r\n\t\tstring memory _d\r\n\t) internal pure returns (string memory) {\r\n\t\treturn strConcat(_a, _b, _c, _d, \"\");\r\n\t}\r\n\r\n\tfunction strConcat(\r\n\t\tstring memory _a,\r\n\t\tstring memory _b,\r\n\t\tstring memory _c\r\n\t) internal pure returns (string memory) {\r\n\t\treturn strConcat(_a, _b, _c, \"\", \"\");\r\n\t}\r\n\r\n\tfunction strConcat(string memory _a, string memory _b) internal pure returns (string memory) {\r\n\t\treturn strConcat(_a, _b, \"\", \"\", \"\");\r\n\t}\r\n\r\n\tfunction uint2str(uint256 _i) internal pure returns (string memory _uintAsString) {\r\n\t\tif (_i == 0) {\r\n\t\t\treturn \"0\";\r\n\t\t}\r\n\t\tuint256 j = _i;\r\n\t\tuint256 len;\r\n\t\twhile (j != 0) {\r\n\t\t\tlen++;\r\n\t\t\tj /= 10;\r\n\t\t}\r\n\t\tbytes memory bstr = new bytes(len);\r\n\t\tuint256 k = len - 1;\r\n\t\twhile (_i != 0) {\r\n\t\t\tbstr[k--] = bytes1(uint8(48 + (_i % 10)));\r\n\t\t\t_i /= 10;\r\n\t\t}\r\n\t\treturn string(bstr);\r\n\t}\r\n}\r\n\r\ncontract OwnableDelegateProxy {}\r\n\r\ncontract ProxyRegistry {\r\n\tmapping(address => OwnableDelegateProxy) public proxies;\r\n}\r\n\r\n/**\r\n * @title ERC1155Tradable\r\n * ERC1155Tradable - ERC1155 contract that whitelists an operator address,\r\n * has create and mint functionality, and supports useful standards from OpenZeppelin,\r\n  like _exists(), name(), symbol(), and totalSupply()\r\n */\r\ncontract ERC1155Tradable is ERC1155, ERC1155MintBurn, ERC1155Metadata, Ownable, MinterRole, WhitelistAdminRole {\r\n\tusing Strings for string;\r\n\r\n\taddress proxyRegistryAddress;\r\n\tuint256 private _currentTokenID = 0;\r\n\tmapping(uint256 => address) public creators;\r\n\tmapping(uint256 => uint256) public tokenSupply;\r\n\tmapping(uint256 => uint256) public tokenMaxSupply;\r\n\t// Contract name\r\n\tstring public name;\r\n\t// Contract symbol\r\n\tstring public symbol;\r\n\r\n    mapping(uint256 => string) private uris;\r\n\r\n    bool private constructed = false;\r\n\r\n    function init(\r\n\t\tstring memory _name,\r\n\t\tstring memory _symbol,\r\n\t\taddress _proxyRegistryAddress\r\n\t) public {\r\n\r\n\t    require(!constructed, \"ERC155 Tradeable must not be constructed yet\");\r\n\r\n\t    constructed = true;\r\n\r\n\t\tname = _name;\r\n\t\tsymbol = _symbol;\r\n\t\tproxyRegistryAddress = _proxyRegistryAddress;\r\n\r\n\t\tsuper.initOwnable();\r\n\t\tsuper.initMinter();\r\n\t\tsuper.initWhiteListAdmin();\r\n\t}\r\n\r\n\tconstructor(\r\n\t\tstring memory _name,\r\n\t\tstring memory _symbol,\r\n\t\taddress _proxyRegistryAddress\r\n\t) public {\r\n\t    constructed = true;\r\n\t\tname = _name;\r\n\t\tsymbol = _symbol;\r\n\t\tproxyRegistryAddress = _proxyRegistryAddress;\r\n\t}\r\n\r\n\tfunction removeWhitelistAdmin(address account) public onlyOwner {\r\n\t\t_removeWhitelistAdmin(account);\r\n\t}\r\n\r\n\tfunction removeMinter(address account) public onlyOwner {\r\n\t\t_removeMinter(account);\r\n\t}\r\n\r\n\tfunction uri(uint256 _id) public view returns (string memory) {\r\n\t\trequire(_exists(_id), \"ERC721Tradable#uri: NONEXISTENT_TOKEN\");\r\n\t\t//return super.uri(_id);\r\n\r\n\t\tif(bytes(uris[_id]).length > 0){\r\n\t\t    return uris[_id];\r\n\t\t}\r\n\t\treturn Strings.strConcat(baseMetadataURI, Strings.uint2str(_id));\r\n\t}\r\n\r\n\t/**\r\n\t * @dev Returns the total quantity for a token ID\r\n\t * @param _id uint256 ID of the token to query\r\n\t * @return amount of token in existence\r\n\t */\r\n\tfunction totalSupply(uint256 _id) public view returns (uint256) {\r\n\t\treturn tokenSupply[_id];\r\n\t}\r\n\r\n\t/**\r\n\t * @dev Returns the max quantity for a token ID\r\n\t * @param _id uint256 ID of the token to query\r\n\t * @return amount of token in existence\r\n\t */\r\n\tfunction maxSupply(uint256 _id) public view returns (uint256) {\r\n\t\treturn tokenMaxSupply[_id];\r\n\t}\r\n\r\n\t/**\r\n\t * @dev Will update the base URL of token's URI\r\n\t * @param _newBaseMetadataURI New base URL of token's URI\r\n\t */\r\n\tfunction setBaseMetadataURI(string memory _newBaseMetadataURI) public onlyWhitelistAdmin {\r\n\t\t_setBaseMetadataURI(_newBaseMetadataURI);\r\n\t}\r\n\r\n\t/**\r\n\t * @dev Creates a new token type and assigns _initialSupply to an address\r\n\t * @param _maxSupply max supply allowed\r\n\t * @param _initialSupply Optional amount to supply the first owner\r\n\t * @param _uri Optional URI for this token type\r\n\t * @param _data Optional data to pass if receiver is contract\r\n\t * @return The newly created token ID\r\n\t */\r\n\tfunction create(\r\n\t\tuint256 _maxSupply,\r\n\t\tuint256 _initialSupply,\r\n\t\tstring calldata _uri,\r\n\t\tbytes calldata _data\r\n\t) external onlyWhitelistAdmin returns (uint256 tokenId) {\r\n\t\trequire(_initialSupply <= _maxSupply, \"Initial supply cannot be more than max supply\");\r\n\t\tuint256 _id = _getNextTokenID();\r\n\t\t_incrementTokenTypeId();\r\n\t\tcreators[_id] = msg.sender;\r\n\r\n\t\tif (bytes(_uri).length > 0) {\r\n\t\t    uris[_id] = _uri;\r\n\t\t\temit URI(_uri, _id);\r\n\t\t}\r\n\t\telse{\r\n\t\t    emit URI(string(abi.encodePacked(baseMetadataURI, _uint2str(_id), \".json\")), _id);\r\n\t\t}\r\n\r\n\t\tif (_initialSupply != 0) _mint(msg.sender, _id, _initialSupply, _data);\r\n\t\ttokenSupply[_id] = _initialSupply;\r\n\t\ttokenMaxSupply[_id] = _maxSupply;\r\n\t\treturn _id;\r\n\t}\r\n\r\n\tfunction updateUri(uint256 _id, string calldata _uri) external onlyWhitelistAdmin{\r\n\t    if (bytes(_uri).length > 0) {\r\n\t\t    uris[_id] = _uri;\r\n\t\t\temit URI(_uri, _id);\r\n\t\t}\r\n\t\telse{\r\n\t\t    emit URI(string(abi.encodePacked(baseMetadataURI, _uint2str(_id), \".json\")), _id);\r\n\t\t}\r\n\t}\r\n\r\n\tfunction burn(address _address, uint256 _id, uint256 _amount) external {\r\n\t    require((msg.sender == _address) || isApprovedForAll(_address, msg.sender), \"ERC1155#burn: INVALID_OPERATOR\");\r\n\t    require(balances[_address][_id] >= _amount, \"Trying to burn more tokens than you own\");\r\n\t    _burn(_address, _id, _amount);\r\n\t}\r\n\r\n\tfunction updateProxyRegistryAddress(address _proxyRegistryAddress) external onlyWhitelistAdmin{\r\n\t    require(_proxyRegistryAddress != address(0), \"No zero address\");\r\n\t    proxyRegistryAddress = _proxyRegistryAddress;\r\n\t}\r\n\r\n\t/**\r\n\t * @dev Mints some amount of tokens to an address\r\n\t * @param _id          Token ID to mint\r\n\t * @param _quantity    Amount of tokens to mint\r\n\t * @param _data        Data to pass if receiver is contract\r\n\t */\r\n\tfunction mint(\r\n\t\tuint256 _id,\r\n\t\tuint256 _quantity,\r\n\t\tbytes memory _data\r\n\t) public onlyMinter {\r\n\t\tuint256 tokenId = _id;\r\n\t\trequire(tokenSupply[tokenId].add(_quantity) <= tokenMaxSupply[tokenId], \"Max supply reached\");\r\n\t\t_mint(msg.sender, _id, _quantity, _data);\r\n\t\ttokenSupply[_id] = tokenSupply[_id].add(_quantity);\r\n\t}\r\n\r\n\t/**\r\n\t * Override isApprovedForAll to whitelist user's OpenSea proxy accounts to enable gas-free listings.\r\n\t */\r\n\tfunction isApprovedForAll(address _owner, address _operator) public view returns (bool isOperator) {\r\n\t\t// Whitelist OpenSea proxy contract for easy trading.\r\n\t\tProxyRegistry proxyRegistry = ProxyRegistry(proxyRegistryAddress);\r\n\t\tif (address(proxyRegistry.proxies(_owner)) == _operator) {\r\n\t\t\treturn true;\r\n\t\t}\r\n\r\n\t\treturn ERC1155.isApprovedForAll(_owner, _operator);\r\n\t}\r\n\r\n\t/**\r\n\t * @dev Returns whether the specified token exists by checking to see if it has a creator\r\n\t * @param _id uint256 ID of the token to query the existence of\r\n\t * @return bool whether the token exists\r\n\t */\r\n\tfunction _exists(uint256 _id) internal view returns (bool) {\r\n\t\treturn creators[_id] != address(0);\r\n\t}\r\n\r\n\t/**\r\n\t * @dev calculates the next token ID based on value of _currentTokenID\r\n\t * @return uint256 for the next token ID\r\n\t */\r\n\tfunction _getNextTokenID() private view returns (uint256) {\r\n\t\treturn _currentTokenID.add(1);\r\n\t}\r\n\r\n\t/**\r\n\t * @dev increments the value of _currentTokenID\r\n\t */\r\n\tfunction _incrementTokenTypeId() private {\r\n\t\t_currentTokenID++;\r\n\t}\r\n}\r\n\r\n/**\r\n * @title IoTeXNFTs\r\n * IoTeXNFTs - NFT Tools\r\n *\r\n * Rinkeby Opensea: 0xf57b2c51ded3a29e6891aba85459d600256cf317\r\n * Mainnet Opensea: 0xa5409ec958c83c3f309868babaca7c86dcb077c1\r\n */\r\ncontract IoTeX is ERC1155Tradable {\r\n\r\n    string private _contractURI = \"https://iotexnfts.web.app/meta/contract.json\";\r\n\r\n\tconstructor(address _proxyRegistryAddress) public ERC1155Tradable(\"IoTeX\", \"IOTX\", _proxyRegistryAddress) {\r\n\t\t_setBaseMetadataURI(\"https://iotexnfts.web.app/meta/\");\r\n\t}\r\n\r\n\tfunction contractURI() public view returns (string memory) {\r\n\t\treturn _contractURI;\r\n\t}\r\n\r\n\tfunction setContractURI(string memory _uri) public onlyWhitelistAdmin{\r\n\t    _contractURI = _uri;\r\n\t}\r\n\r\n\tfunction version() external pure returns (uint256) {\r\n\t\treturn 1;\r\n\t}\r\n\r\n}",
  "sourcePath": "C:\\Users\\Lenovo\\Downloads\\IotexNFTs\\contracts\\IoTeXNFTs.sol",
  "compiler": {
    "name": "solc",
    "version": "0.5.16+commit.9c3226ce.Emscripten.clang"
  },
  "schemaVersion": "3.4.2",
  "updatedAt": "2021-08-05T08:40:41.455Z",
  "devdoc": {
    "methods": {
      "balanceOf(address,uint256)": {
        "params": {
          "_id": "ID of the Token",
          "_owner": "The address of the token holder"
        },
        "return": "The _owner's balance of the Token type requested"
      },
      "balanceOfBatch(address[],uint256[])": {
        "params": {
          "_ids": "ID of the Tokens",
          "_owners": "The addresses of the token holders"
        },
        "return": "The _owner's balance of the Token types requested (i.e. balance for each (owner, id) pair)"
      },
      "create(uint256,uint256,string,bytes)": {
        "details": "Creates a new token type and assigns _initialSupply to an address",
        "params": {
          "_data": "Optional data to pass if receiver is contract",
          "_initialSupply": "Optional amount to supply the first owner",
          "_maxSupply": "max supply allowed",
          "_uri": "Optional URI for this token type"
        },
        "return": "The newly created token ID"
      },
      "isOwner()": {
        "details": "Returns true if the caller is the current owner."
      },
      "maxSupply(uint256)": {
        "details": "Returns the max quantity for a token ID",
        "params": {
          "_id": "uint256 ID of the token to query"
        },
        "return": "amount of token in existence"
      },
      "mint(uint256,uint256,bytes)": {
        "details": "Mints some amount of tokens to an address",
        "params": {
          "_data": "Data to pass if receiver is contract",
          "_id": "Token ID to mint",
          "_quantity": "Amount of tokens to mint"
        }
      },
      "owner()": {
        "details": "Returns the address of the current owner."
      },
      "renounceOwnership()": {
        "details": "Leaves the contract without owner. It will not be possible to call `onlyOwner` functions anymore. Can only be called by the current owner.      * NOTE: Renouncing ownership will leave the contract without an owner, thereby removing any functionality that is only available to the owner."
      },
      "safeBatchTransferFrom(address,address,uint256[],uint256[],bytes)": {
        "params": {
          "_amounts": "Transfer amounts per token type",
          "_data": "Additional data with no specified format, sent in call to `_to`",
          "_from": "Source addresses",
          "_ids": "IDs of each token type",
          "_to": "Target addresses"
        }
      },
      "safeTransferFrom(address,address,uint256,uint256,bytes)": {
        "params": {
          "_amount": "Transfered amount",
          "_data": "Additional data with no specified format, sent in call to `_to`",
          "_from": "Source address",
          "_id": "ID of the token type",
          "_to": "Target address"
        }
      },
      "setApprovalForAll(address,bool)": {
        "params": {
          "_approved": "True if the operator is approved, false to revoke approval",
          "_operator": "Address to add to the set of authorized operators"
        }
      },
      "setBaseMetadataURI(string)": {
        "details": "Will update the base URL of token's URI",
        "params": {
          "_newBaseMetadataURI": "New base URL of token's URI"
        }
      },
      "supportsInterface(bytes4)": {
        "params": {
          "_interfaceID": "The interface identifier, as specified in ERC-165"
        },
        "return": "`true` if the contract implements `_interfaceID` and"
      },
      "totalSupply(uint256)": {
        "details": "Returns the total quantity for a token ID",
        "params": {
          "_id": "uint256 ID of the token to query"
        },
        "return": "amount of token in existence"
      },
      "transferOwnership(address)": {
        "details": "Transfers ownership of the contract to a new account (`newOwner`). Can only be called by the current owner."
      }
    },
    "title": "ERC1155Tradable ERC1155Tradable - ERC1155 contract that whitelists an operator address, has create and mint functionality, and supports useful standards from OpenZeppelin, like _exists(), name(), symbol(), and totalSupply()"
  },
  "userdoc": {
    "methods": {
      "balanceOf(address,uint256)": {
        "notice": "Get the balance of an account's Tokens"
      },
      "balanceOfBatch(address[],uint256[])": {
        "notice": "Get the balance of multiple account/token pairs"
      },
      "isApprovedForAll(address,address)": {
        "notice": "Override isApprovedForAll to whitelist user's OpenSea proxy accounts to enable gas-free listings."
      },
      "safeBatchTransferFrom(address,address,uint256[],uint256[],bytes)": {
        "notice": "Send multiple types of Tokens from the _from address to the _to address (with safety call)"
      },
      "safeTransferFrom(address,address,uint256,uint256,bytes)": {
        "notice": "Transfers amount amount of an _id from the _from address to the _to address specified"
      },
      "setApprovalForAll(address,bool)": {
        "notice": "Enable or disable approval for a third party (\"operator\") to manage all of caller's tokens"
      },
      "supportsInterface(bytes4)": {
        "notice": "Query if a contract implements an interface"
      }
    }
  }
}